{
  "_format": "hh-sol-artifact-1",
  "contractName": "EduTechQuiz",
  "sourceName": "contracts/LearnBlock.sol",
  "abi": [
    {
      "inputs": [
        {
          "internalType": "address[]",
          "name": "_trustees",
          "type": "address[]"
        }
      ],
      "stateMutability": "nonpayable",
      "type": "constructor"
    },
    {
      "inputs": [],
      "name": "ERC721EnumerableForbiddenBatchMint",
      "type": "error"
    },
    {
      "inputs": [
        {
          "internalType": "address",
          "name": "sender",
          "type": "address"
        },
        {
          "internalType": "uint256",
          "name": "tokenId",
          "type": "uint256"
        },
        {
          "internalType": "address",
          "name": "owner",
          "type": "address"
        }
      ],
      "name": "ERC721IncorrectOwner",
      "type": "error"
    },
    {
      "inputs": [
        {
          "internalType": "address",
          "name": "operator",
          "type": "address"
        },
        {
          "internalType": "uint256",
          "name": "tokenId",
          "type": "uint256"
        }
      ],
      "name": "ERC721InsufficientApproval",
      "type": "error"
    },
    {
      "inputs": [
        {
          "internalType": "address",
          "name": "approver",
          "type": "address"
        }
      ],
      "name": "ERC721InvalidApprover",
      "type": "error"
    },
    {
      "inputs": [
        {
          "internalType": "address",
          "name": "operator",
          "type": "address"
        }
      ],
      "name": "ERC721InvalidOperator",
      "type": "error"
    },
    {
      "inputs": [
        {
          "internalType": "address",
          "name": "owner",
          "type": "address"
        }
      ],
      "name": "ERC721InvalidOwner",
      "type": "error"
    },
    {
      "inputs": [
        {
          "internalType": "address",
          "name": "receiver",
          "type": "address"
        }
      ],
      "name": "ERC721InvalidReceiver",
      "type": "error"
    },
    {
      "inputs": [
        {
          "internalType": "address",
          "name": "sender",
          "type": "address"
        }
      ],
      "name": "ERC721InvalidSender",
      "type": "error"
    },
    {
      "inputs": [
        {
          "internalType": "uint256",
          "name": "tokenId",
          "type": "uint256"
        }
      ],
      "name": "ERC721NonexistentToken",
      "type": "error"
    },
    {
      "inputs": [
        {
          "internalType": "address",
          "name": "owner",
          "type": "address"
        },
        {
          "internalType": "uint256",
          "name": "index",
          "type": "uint256"
        }
      ],
      "name": "ERC721OutOfBoundsIndex",
      "type": "error"
    },
    {
      "anonymous": false,
      "inputs": [
        {
          "indexed": true,
          "internalType": "address",
          "name": "owner",
          "type": "address"
        },
        {
          "indexed": true,
          "internalType": "address",
          "name": "approved",
          "type": "address"
        },
        {
          "indexed": true,
          "internalType": "uint256",
          "name": "tokenId",
          "type": "uint256"
        }
      ],
      "name": "Approval",
      "type": "event"
    },
    {
      "anonymous": false,
      "inputs": [
        {
          "indexed": true,
          "internalType": "address",
          "name": "owner",
          "type": "address"
        },
        {
          "indexed": true,
          "internalType": "address",
          "name": "operator",
          "type": "address"
        },
        {
          "indexed": false,
          "internalType": "bool",
          "name": "approved",
          "type": "bool"
        }
      ],
      "name": "ApprovalForAll",
      "type": "event"
    },
    {
      "anonymous": false,
      "inputs": [
        {
          "indexed": true,
          "internalType": "address",
          "name": "user",
          "type": "address"
        },
        {
          "indexed": true,
          "internalType": "uint256",
          "name": "contentId",
          "type": "uint256"
        }
      ],
      "name": "ArticleRead",
      "type": "event"
    },
    {
      "anonymous": false,
      "inputs": [
        {
          "indexed": true,
          "internalType": "address",
          "name": "user",
          "type": "address"
        },
        {
          "indexed": false,
          "internalType": "uint256",
          "name": "badgeId",
          "type": "uint256"
        },
        {
          "indexed": false,
          "internalType": "bool",
          "name": "isGolden",
          "type": "bool"
        }
      ],
      "name": "BadgeMinted",
      "type": "event"
    },
    {
      "anonymous": false,
      "inputs": [
        {
          "indexed": true,
          "internalType": "uint256",
          "name": "contentId",
          "type": "uint256"
        }
      ],
      "name": "ContentRegistered",
      "type": "event"
    },
    {
      "anonymous": false,
      "inputs": [
        {
          "indexed": true,
          "internalType": "address",
          "name": "user",
          "type": "address"
        },
        {
          "indexed": true,
          "internalType": "uint256",
          "name": "contentId",
          "type": "uint256"
        },
        {
          "indexed": false,
          "internalType": "uint256",
          "name": "points",
          "type": "uint256"
        }
      ],
      "name": "QuizTaken",
      "type": "event"
    },
    {
      "anonymous": false,
      "inputs": [
        {
          "indexed": true,
          "internalType": "address",
          "name": "from",
          "type": "address"
        },
        {
          "indexed": true,
          "internalType": "address",
          "name": "to",
          "type": "address"
        },
        {
          "indexed": true,
          "internalType": "uint256",
          "name": "tokenId",
          "type": "uint256"
        }
      ],
      "name": "Transfer",
      "type": "event"
    },
    {
      "anonymous": false,
      "inputs": [
        {
          "indexed": true,
          "internalType": "address",
          "name": "user",
          "type": "address"
        },
        {
          "indexed": false,
          "internalType": "uint256",
          "name": "amount",
          "type": "uint256"
        }
      ],
      "name": "XFIRewardClaimed",
      "type": "event"
    },
    {
      "inputs": [
        {
          "internalType": "uint256",
          "name": "contentId",
          "type": "uint256"
        },
        {
          "internalType": "string",
          "name": "question",
          "type": "string"
        },
        {
          "internalType": "string[]",
          "name": "options",
          "type": "string[]"
        },
        {
          "internalType": "uint256",
          "name": "correctAnswerIndex",
          "type": "uint256"
        }
      ],
      "name": "addQuizQuestion",
      "outputs": [],
      "stateMutability": "nonpayable",
      "type": "function"
    },
    {
      "inputs": [
        {
          "internalType": "address",
          "name": "to",
          "type": "address"
        },
        {
          "internalType": "uint256",
          "name": "tokenId",
          "type": "uint256"
        }
      ],
      "name": "approve",
      "outputs": [],
      "stateMutability": "nonpayable",
      "type": "function"
    },
    {
      "inputs": [
        {
          "internalType": "address",
          "name": "owner",
          "type": "address"
        }
      ],
      "name": "balanceOf",
      "outputs": [
        {
          "internalType": "uint256",
          "name": "",
          "type": "uint256"
        }
      ],
      "stateMutability": "view",
      "type": "function"
    },
    {
      "inputs": [],
      "name": "claimXFIReward",
      "outputs": [],
      "stateMutability": "nonpayable",
      "type": "function"
    },
    {
      "inputs": [
        {
          "internalType": "uint256",
          "name": "",
          "type": "uint256"
        }
      ],
      "name": "contents",
      "outputs": [
        {
          "internalType": "string",
          "name": "title",
          "type": "string"
        },
        {
          "internalType": "string",
          "name": "body",
          "type": "string"
        },
        {
          "internalType": "uint256",
          "name": "pointReward",
          "type": "uint256"
        },
        {
          "internalType": "bool",
          "name": "exists",
          "type": "bool"
        }
      ],
      "stateMutability": "view",
      "type": "function"
    },
    {
      "inputs": [],
      "name": "getAllContentIds",
      "outputs": [
        {
          "internalType": "uint256[]",
          "name": "",
          "type": "uint256[]"
        }
      ],
      "stateMutability": "view",
      "type": "function"
    },
    {
      "inputs": [
        {
          "internalType": "uint256",
          "name": "tokenId",
          "type": "uint256"
        }
      ],
      "name": "getApproved",
      "outputs": [
        {
          "internalType": "address",
          "name": "",
          "type": "address"
        }
      ],
      "stateMutability": "view",
      "type": "function"
    },
    {
      "inputs": [
        {
          "internalType": "uint256",
          "name": "contentId",
          "type": "uint256"
        }
      ],
      "name": "getContent",
      "outputs": [
        {
          "internalType": "string",
          "name": "title",
          "type": "string"
        },
        {
          "internalType": "string",
          "name": "body",
          "type": "string"
        },
        {
          "internalType": "string[]",
          "name": "sources",
          "type": "string[]"
        },
        {
          "internalType": "uint256",
          "name": "pointReward",
          "type": "uint256"
        }
      ],
      "stateMutability": "view",
      "type": "function"
    },
    {
      "inputs": [
        {
          "internalType": "uint256",
          "name": "contentId",
          "type": "uint256"
        }
      ],
      "name": "getQuizQuestions",
      "outputs": [
        {
          "internalType": "string[]",
          "name": "questions",
          "type": "string[]"
        },
        {
          "internalType": "string[][]",
          "name": "options",
          "type": "string[][]"
        },
        {
          "internalType": "uint256[]",
          "name": "correctIndexes",
          "type": "uint256[]"
        }
      ],
      "stateMutability": "view",
      "type": "function"
    },
    {
      "inputs": [],
      "name": "getTrustees",
      "outputs": [
        {
          "internalType": "address[]",
          "name": "",
          "type": "address[]"
        }
      ],
      "stateMutability": "view",
      "type": "function"
    },
    {
      "inputs": [
        {
          "internalType": "address",
          "name": "user",
          "type": "address"
        }
      ],
      "name": "getUnredeemedPoints",
      "outputs": [
        {
          "internalType": "uint256",
          "name": "",
          "type": "uint256"
        }
      ],
      "stateMutability": "view",
      "type": "function"
    },
    {
      "inputs": [
        {
          "internalType": "address",
          "name": "user",
          "type": "address"
        }
      ],
      "name": "getUserBadgeIds",
      "outputs": [
        {
          "internalType": "uint256[]",
          "name": "",
          "type": "uint256[]"
        }
      ],
      "stateMutability": "view",
      "type": "function"
    },
    {
      "inputs": [
        {
          "internalType": "address",
          "name": "user",
          "type": "address"
        }
      ],
      "name": "getUserCompletedContent",
      "outputs": [
        {
          "internalType": "bool[]",
          "name": "",
          "type": "bool[]"
        }
      ],
      "stateMutability": "view",
      "type": "function"
    },
    {
      "inputs": [
        {
          "internalType": "address",
          "name": "user",
          "type": "address"
        }
      ],
      "name": "getUserProfile",
      "outputs": [
        {
          "internalType": "uint256",
          "name": "userId",
          "type": "uint256"
        },
        {
          "internalType": "uint256",
          "name": "articlesRead",
          "type": "uint256"
        },
        {
          "internalType": "uint256",
          "name": "quizzesTaken",
          "type": "uint256"
        },
        {
          "internalType": "uint256",
          "name": "totalPointsEarned",
          "type": "uint256"
        },
        {
          "internalType": "uint256",
          "name": "totalPointsRedeemed",
          "type": "uint256"
        },
        {
          "internalType": "uint256",
          "name": "unredeemedPoints",
          "type": "uint256"
        },
        {
          "internalType": "uint256",
          "name": "badges",
          "type": "uint256"
        },
        {
          "internalType": "bool",
          "name": "goldenBadgeClaimed",
          "type": "bool"
        }
      ],
      "stateMutability": "view",
      "type": "function"
    },
    {
      "inputs": [
        {
          "internalType": "address",
          "name": "",
          "type": "address"
        },
        {
          "internalType": "uint256",
          "name": "",
          "type": "uint256"
        }
      ],
      "name": "hasCompleted",
      "outputs": [
        {
          "internalType": "bool",
          "name": "",
          "type": "bool"
        }
      ],
      "stateMutability": "view",
      "type": "function"
    },
    {
      "inputs": [
        {
          "internalType": "address",
          "name": "owner",
          "type": "address"
        },
        {
          "internalType": "address",
          "name": "operator",
          "type": "address"
        }
      ],
      "name": "isApprovedForAll",
      "outputs": [
        {
          "internalType": "bool",
          "name": "",
          "type": "bool"
        }
      ],
      "stateMutability": "view",
      "type": "function"
    },
    {
      "inputs": [
        {
          "internalType": "address",
          "name": "",
          "type": "address"
        }
      ],
      "name": "isTrustee",
      "outputs": [
        {
          "internalType": "bool",
          "name": "",
          "type": "bool"
        }
      ],
      "stateMutability": "view",
      "type": "function"
    },
    {
      "inputs": [
        {
          "internalType": "address",
          "name": "user",
          "type": "address"
        }
      ],
      "name": "isUserRegistered",
      "outputs": [
        {
          "internalType": "bool",
          "name": "",
          "type": "bool"
        }
      ],
      "stateMutability": "view",
      "type": "function"
    },
    {
      "inputs": [],
      "name": "name",
      "outputs": [
        {
          "internalType": "string",
          "name": "",
          "type": "string"
        }
      ],
      "stateMutability": "view",
      "type": "function"
    },
    {
      "inputs": [],
      "name": "nextBadgeId",
      "outputs": [
        {
          "internalType": "uint256",
          "name": "",
          "type": "uint256"
        }
      ],
      "stateMutability": "view",
      "type": "function"
    },
    {
      "inputs": [],
      "name": "nextContentId",
      "outputs": [
        {
          "internalType": "uint256",
          "name": "",
          "type": "uint256"
        }
      ],
      "stateMutability": "view",
      "type": "function"
    },
    {
      "inputs": [],
      "name": "nextUserId",
      "outputs": [
        {
          "internalType": "uint256",
          "name": "",
          "type": "uint256"
        }
      ],
      "stateMutability": "view",
      "type": "function"
    },
    {
      "inputs": [
        {
          "internalType": "uint256",
          "name": "tokenId",
          "type": "uint256"
        }
      ],
      "name": "ownerOf",
      "outputs": [
        {
          "internalType": "address",
          "name": "",
          "type": "address"
        }
      ],
      "stateMutability": "view",
      "type": "function"
    },
    {
      "inputs": [
        {
          "internalType": "address",
          "name": "",
          "type": "address"
        }
      ],
      "name": "profiles",
      "outputs": [
        {
          "internalType": "uint256",
          "name": "userId",
          "type": "uint256"
        },
        {
          "internalType": "uint256",
          "name": "articlesRead",
          "type": "uint256"
        },
        {
          "internalType": "uint256",
          "name": "quizzesTaken",
          "type": "uint256"
        },
        {
          "internalType": "uint256",
          "name": "totalPointsEarned",
          "type": "uint256"
        },
        {
          "internalType": "uint256",
          "name": "totalPointsRedeemed",
          "type": "uint256"
        },
        {
          "internalType": "uint256",
          "name": "badges",
          "type": "uint256"
        },
        {
          "internalType": "bool",
          "name": "goldenBadgeClaimed",
          "type": "bool"
        }
      ],
      "stateMutability": "view",
      "type": "function"
    },
    {
      "inputs": [
        {
          "internalType": "uint256",
          "name": "contentId",
          "type": "uint256"
        }
      ],
      "name": "readArticle",
      "outputs": [],
      "stateMutability": "nonpayable",
      "type": "function"
    },
    {
      "inputs": [
        {
          "internalType": "string",
          "name": "title",
          "type": "string"
        },
        {
          "internalType": "string",
          "name": "body",
          "type": "string"
        },
        {
          "internalType": "string[]",
          "name": "sources",
          "type": "string[]"
        },
        {
          "internalType": "uint256",
          "name": "pointReward",
          "type": "uint256"
        }
      ],
      "name": "registerContent",
      "outputs": [],
      "stateMutability": "nonpayable",
      "type": "function"
    },
    {
      "inputs": [
        {
          "internalType": "address",
          "name": "from",
          "type": "address"
        },
        {
          "internalType": "address",
          "name": "to",
          "type": "address"
        },
        {
          "internalType": "uint256",
          "name": "tokenId",
          "type": "uint256"
        }
      ],
      "name": "safeTransferFrom",
      "outputs": [],
      "stateMutability": "nonpayable",
      "type": "function"
    },
    {
      "inputs": [
        {
          "internalType": "address",
          "name": "from",
          "type": "address"
        },
        {
          "internalType": "address",
          "name": "to",
          "type": "address"
        },
        {
          "internalType": "uint256",
          "name": "tokenId",
          "type": "uint256"
        },
        {
          "internalType": "bytes",
          "name": "data",
          "type": "bytes"
        }
      ],
      "name": "safeTransferFrom",
      "outputs": [],
      "stateMutability": "nonpayable",
      "type": "function"
    },
    {
      "inputs": [
        {
          "internalType": "address",
          "name": "operator",
          "type": "address"
        },
        {
          "internalType": "bool",
          "name": "approved",
          "type": "bool"
        }
      ],
      "name": "setApprovalForAll",
      "outputs": [],
      "stateMutability": "nonpayable",
      "type": "function"
    },
    {
      "inputs": [
        {
          "internalType": "bytes4",
          "name": "interfaceId",
          "type": "bytes4"
        }
      ],
      "name": "supportsInterface",
      "outputs": [
        {
          "internalType": "bool",
          "name": "",
          "type": "bool"
        }
      ],
      "stateMutability": "view",
      "type": "function"
    },
    {
      "inputs": [],
      "name": "symbol",
      "outputs": [
        {
          "internalType": "string",
          "name": "",
          "type": "string"
        }
      ],
      "stateMutability": "view",
      "type": "function"
    },
    {
      "inputs": [
        {
          "internalType": "uint256",
          "name": "contentId",
          "type": "uint256"
        }
      ],
      "name": "takeQuiz",
      "outputs": [],
      "stateMutability": "nonpayable",
      "type": "function"
    },
    {
      "inputs": [
        {
          "internalType": "uint256",
          "name": "index",
          "type": "uint256"
        }
      ],
      "name": "tokenByIndex",
      "outputs": [
        {
          "internalType": "uint256",
          "name": "",
          "type": "uint256"
        }
      ],
      "stateMutability": "view",
      "type": "function"
    },
    {
      "inputs": [
        {
          "internalType": "address",
          "name": "owner",
          "type": "address"
        },
        {
          "internalType": "uint256",
          "name": "index",
          "type": "uint256"
        }
      ],
      "name": "tokenOfOwnerByIndex",
      "outputs": [
        {
          "internalType": "uint256",
          "name": "",
          "type": "uint256"
        }
      ],
      "stateMutability": "view",
      "type": "function"
    },
    {
      "inputs": [
        {
          "internalType": "uint256",
          "name": "tokenId",
          "type": "uint256"
        }
      ],
      "name": "tokenURI",
      "outputs": [
        {
          "internalType": "string",
          "name": "",
          "type": "string"
        }
      ],
      "stateMutability": "view",
      "type": "function"
    },
    {
      "inputs": [],
      "name": "totalSupply",
      "outputs": [
        {
          "internalType": "uint256",
          "name": "",
          "type": "uint256"
        }
      ],
      "stateMutability": "view",
      "type": "function"
    },
    {
      "inputs": [
        {
          "internalType": "address",
          "name": "from",
          "type": "address"
        },
        {
          "internalType": "address",
          "name": "to",
          "type": "address"
        },
        {
          "internalType": "uint256",
          "name": "tokenId",
          "type": "uint256"
        }
      ],
      "name": "transferFrom",
      "outputs": [],
      "stateMutability": "nonpayable",
      "type": "function"
    },
    {
      "inputs": [
        {
          "internalType": "uint256",
          "name": "",
          "type": "uint256"
        }
      ],
      "name": "trustees",
      "outputs": [
        {
          "internalType": "address",
          "name": "",
          "type": "address"
        }
      ],
      "stateMutability": "view",
      "type": "function"
    },
    {
      "stateMutability": "payable",
      "type": "receive"
    }
  ],
  "bytecode": "0x608060405234801561001057600080fd5b50604051615e01380380615e01833981810160405281019061003291906104de565b6040518060400160405280600c81526020017f45647554656368426164676500000000000000000000000000000000000000008152506040518060400160405280600381526020017f455442000000000000000000000000000000000000000000000000000000000081525081600090816100ad9190610748565b5080600190816100bd9190610748565b5050506000815111610104576040517f08c379a00000000000000000000000000000000000000000000000000000000081526004016100fb90610877565b60405180910390fd5b60005b81518110156102f457600082828151811061012557610124610897565b5b60200260200101519050600073ffffffffffffffffffffffffffffffffffffffff168173ffffffffffffffffffffffffffffffffffffffff160361019e576040517f08c379a000000000000000000000000000000000000000000000000000000000815260040161019590610912565b60405180910390fd5b600e60008273ffffffffffffffffffffffffffffffffffffffff1673ffffffffffffffffffffffffffffffffffffffff16815260200190815260200160002060009054906101000a900460ff161561022b576040517f08c379a00000000000000000000000000000000000000000000000000000000081526004016102229061097e565b60405180910390fd5b6001600e60008373ffffffffffffffffffffffffffffffffffffffff1673ffffffffffffffffffffffffffffffffffffffff16815260200190815260200160002060006101000a81548160ff021916908315150217905550600d819080600181540180825580915050600190039060005260206000200160009091909190916101000a81548173ffffffffffffffffffffffffffffffffffffffff021916908373ffffffffffffffffffffffffffffffffffffffff160217905550508080600101915050610107565b506001600a819055506001600b819055506001600c819055505061099e565b6000604051905090565b600080fd5b600080fd5b600080fd5b6000601f19601f8301169050919050565b7f4e487b7100000000000000000000000000000000000000000000000000000000600052604160045260246000fd5b6103758261032c565b810181811067ffffffffffffffff821117156103945761039361033d565b5b80604052505050565b60006103a7610313565b90506103b3828261036c565b919050565b600067ffffffffffffffff8211156103d3576103d261033d565b5b602082029050602081019050919050565b600080fd5b600073ffffffffffffffffffffffffffffffffffffffff82169050919050565b6000610414826103e9565b9050919050565b61042481610409565b811461042f57600080fd5b50565b6000815190506104418161041b565b92915050565b600061045a610455846103b8565b61039d565b9050808382526020820190506020840283018581111561047d5761047c6103e4565b5b835b818110156104a657806104928882610432565b84526020840193505060208101905061047f565b5050509392505050565b600082601f8301126104c5576104c4610327565b5b81516104d5848260208601610447565b91505092915050565b6000602082840312156104f4576104f361031d565b5b600082015167ffffffffffffffff81111561051257610511610322565b5b61051e848285016104b0565b91505092915050565b600081519050919050565b7f4e487b7100000000000000000000000000000000000000000000000000000000600052602260045260246000fd5b6000600282049050600182168061057957607f821691505b60208210810361058c5761058b610532565b5b50919050565b60008190508160005260206000209050919050565b60006020601f8301049050919050565b600082821b905092915050565b6000600883026105f47fffffffffffffffffffffffffffffffffffffffffffffffffffffffffffffffff826105b7565b6105fe86836105b7565b95508019841693508086168417925050509392505050565b6000819050919050565b6000819050919050565b600061064561064061063b84610616565b610620565b610616565b9050919050565b6000819050919050565b61065f8361062a565b61067361066b8261064c565b8484546105c4565b825550505050565b600090565b61068861067b565b610693818484610656565b505050565b5b818110156106b7576106ac600082610680565b600181019050610699565b5050565b601f8211156106fc576106cd81610592565b6106d6846105a7565b810160208510156106e5578190505b6106f96106f1856105a7565b830182610698565b50505b505050565b600082821c905092915050565b600061071f60001984600802610701565b1980831691505092915050565b6000610738838361070e565b9150826002028217905092915050565b61075182610527565b67ffffffffffffffff81111561076a5761076961033d565b5b6107748254610561565b61077f8282856106bb565b600060209050601f8311600181146107b257600084156107a0578287015190505b6107aa858261072c565b865550610812565b601f1984166107c086610592565b60005b828110156107e8578489015182556001820191506020850194506020810190506107c3565b868310156108055784890151610801601f89168261070e565b8355505b6001600288020188555050505b505050505050565b600082825260208201905092915050565b7f4174206c65617374206f6e652074727573746565207265717569726564000000600082015250565b6000610861601d8361081a565b915061086c8261082b565b602082019050919050565b6000602082019050818103600083015261089081610854565b9050919050565b7f4e487b7100000000000000000000000000000000000000000000000000000000600052603260045260246000fd5b7f496e76616c696420747275737465650000000000000000000000000000000000600082015250565b60006108fc600f8361081a565b9150610907826108c6565b602082019050919050565b6000602082019050818103600083015261092b816108ef565b9050919050565b7f4475706c69636174652074727573746565000000000000000000000000000000600082015250565b600061096860118361081a565b915061097382610932565b602082019050919050565b600060208201905081810360008301526109978161095b565b9050919050565b615454806109ad6000396000f3fe6080604052600436106102295760003560e01c8063717d63a411610123578063beffaf09116100ab578063d4325a031161006f578063d4325a03146108e3578063d65bd9fc14610920578063d7aaf64814610949578063e985e9c514610988578063fd4f2d3c146109c557610230565b8063beffaf09146107d6578063c130efd014610801578063c784cd171461082c578063c78f6bcf14610869578063c87b56dd146108a657610230565b8063a22cb465116100f2578063a22cb465146106d6578063af0ddfc8146106ff578063b5ecf9121461072a578063b88d4fde1461076a578063bbe156271461079357610230565b8063717d63a4146105ff57806395d89b411461063c578063987ee15614610667578063a1e6a255146106ab57610230565b806323b872dd116101b157806342adc6f11161017557806342adc6f1146104e25780634f6ccce71461051f5780635f2b4ad31461055c5780636352211e1461058557806370a08231146105c257610230565b806323b872dd146103ff5780632e246786146104285780632f745c591461046557806334e7697e146104a257806342842e0e146104b957610230565b8063095ea7b3116101f8578063095ea7b3146103035780630a248d7f1461032c5780630b7ad54c14610357578063163f75221461039757806318160ddd146103d457610230565b806301ffc9a71461023557806306bc6c601461027257806306fdde031461029b578063081812fc146102c657610230565b3661023057005b600080fd5b34801561024157600080fd5b5061025c60048036038101906102579190613ae6565b6109ee565b6040516102699190613b2e565b60405180910390f35b34801561027e57600080fd5b5061029960048036038101906102949190613dab565b610a68565b005b3480156102a757600080fd5b506102b0610c39565b6040516102bd9190613ec9565b60405180910390f35b3480156102d257600080fd5b506102ed60048036038101906102e89190613eeb565b610ccb565b6040516102fa9190613f59565b60405180910390f35b34801561030f57600080fd5b5061032a60048036038101906103259190613fa0565b610ce7565b005b34801561033857600080fd5b50610341610cfd565b60405161034e9190613fef565b60405180910390f35b34801561036357600080fd5b5061037e60048036038101906103799190613eeb565b610d03565b60405161038e9493929190614116565b60405180910390f35b3480156103a357600080fd5b506103be60048036038101906103b99190614170565b610f7d565b6040516103cb9190613b2e565b60405180910390f35b3480156103e057600080fd5b506103e9610fcc565b6040516103f69190613fef565b60405180910390f35b34801561040b57600080fd5b506104266004803603810190610421919061419d565b610fd9565b005b34801561043457600080fd5b5061044f600480360381019061044a9190613fa0565b6110db565b60405161045c9190613b2e565b60405180910390f35b34801561047157600080fd5b5061048c60048036038101906104879190613fa0565b61110a565b6040516104999190613fef565b60405180910390f35b3480156104ae57600080fd5b506104b76111b3565b005b3480156104c557600080fd5b506104e060048036038101906104db919061419d565b6113c7565b005b3480156104ee57600080fd5b5061050960048036038101906105049190614170565b6113e7565b6040516105169190613fef565b60405180910390f35b34801561052b57600080fd5b5061054660048036038101906105419190613eeb565b611447565b6040516105539190613fef565b60405180910390f35b34801561056857600080fd5b50610583600480360381019061057e9190613eeb565b6114bd565b005b34801561059157600080fd5b506105ac60048036038101906105a79190613eeb565b6115ce565b6040516105b99190613f59565b60405180910390f35b3480156105ce57600080fd5b506105e960048036038101906105e49190614170565b6115e0565b6040516105f69190613fef565b60405180910390f35b34801561060b57600080fd5b5061062660048036038101906106219190613eeb565b61169a565b6040516106339190613f59565b60405180910390f35b34801561064857600080fd5b506106516116d9565b60405161065e9190613ec9565b60405180910390f35b34801561067357600080fd5b5061068e60048036038101906106899190614170565b61176b565b6040516106a29897969594939291906141f0565b60405180910390f35b3480156106b757600080fd5b506106c0611861565b6040516106cd9190613fef565b60405180910390f35b3480156106e257600080fd5b506106fd60048036038101906106f8919061429a565b611867565b005b34801561070b57600080fd5b5061071461187d565b6040516107219190613fef565b60405180910390f35b34801561073657600080fd5b50610751600480360381019061074c9190613eeb565b611883565b60405161076194939291906142da565b60405180910390f35b34801561077657600080fd5b50610791600480360381019061078c91906143ce565b6119d0565b005b34801561079f57600080fd5b506107ba60048036038101906107b59190614170565b6119f5565b6040516107cd9796959493929190614451565b60405180910390f35b3480156107e257600080fd5b506107eb611a44565b6040516107f8919061457e565b60405180910390f35b34801561080d57600080fd5b50610816611ad2565b604051610823919061465e565b60405180910390f35b34801561083857600080fd5b50610853600480360381019061084e9190614170565b611b81565b6040516108609190613b2e565b60405180910390f35b34801561087557600080fd5b50610890600480360381019061088b9190614170565b611ba1565b60405161089d919061465e565b60405180910390f35b3480156108b257600080fd5b506108cd60048036038101906108c89190613eeb565b611c49565b6040516108da9190613ec9565b60405180910390f35b3480156108ef57600080fd5b5061090a60048036038101906109059190614170565b611cb2565b604051610917919061473e565b60405180910390f35b34801561092c57600080fd5b5061094760048036038101906109429190613eeb565b611dcf565b005b34801561095557600080fd5b50610970600480360381019061096b9190613eeb565b612036565b60405161097f939291906148a8565b60405180910390f35b34801561099457600080fd5b506109af60048036038101906109aa91906148f4565b6123a6565b6040516109bc9190613b2e565b60405180910390f35b3480156109d157600080fd5b506109ec60048036038101906109e79190614934565b61243a565b005b60007f780e9d63000000000000000000000000000000000000000000000000000000007bffffffffffffffffffffffffffffffffffffffffffffffffffffffff1916827bffffffffffffffffffffffffffffffffffffffffffffffffffffffff19161480610a615750610a6082612594565b5b9050919050565b600e60003373ffffffffffffffffffffffffffffffffffffffff1673ffffffffffffffffffffffffffffffffffffffff16815260200190815260200160002060009054906101000a900460ff16610af4576040517f08c379a0000000000000000000000000000000000000000000000000000000008152600401610aeb90614a3b565b60405180910390fd5b600f600085815260200190815260200160002060050160009054906101000a900460ff16610b57576040517f08c379a0000000000000000000000000000000000000000000000000000000008152600401610b4e90614aa7565b60405180910390fd5b81518110610b9a576040517f08c379a0000000000000000000000000000000000000000000000000000000008152600401610b9190614b13565b60405180910390fd5b600f600085815260200190815260200160002060030160405180606001604052808581526020018481526020018381525090806001815401808255809150506001900390600052602060002090600302016000909190919091506000820151816000019081610c099190614d3f565b506020820151816001019080519060200190610c269291906139a0565b5060408201518160020155505050505050565b606060008054610c4890614b62565b80601f0160208091040260200160405190810160405280929190818152602001828054610c7490614b62565b8015610cc15780601f10610c9657610100808354040283529160200191610cc1565b820191906000526020600020905b815481529060010190602001808311610ca457829003601f168201915b5050505050905090565b6000610cd682612676565b50610ce0826126fe565b9050919050565b610cf98282610cf461273b565b612743565b5050565b600a5481565b6060806060600080600f600087815260200190815260200160002090508060050160009054906101000a900460ff16610d71576040517f08c379a0000000000000000000000000000000000000000000000000000000008152600401610d6890614aa7565b60405180910390fd5b8060000181600101826002018360040154838054610d8e90614b62565b80601f0160208091040260200160405190810160405280929190818152602001828054610dba90614b62565b8015610e075780601f10610ddc57610100808354040283529160200191610e07565b820191906000526020600020905b815481529060010190602001808311610dea57829003601f168201915b50505050509350828054610e1a90614b62565b80601f0160208091040260200160405190810160405280929190818152602001828054610e4690614b62565b8015610e935780601f10610e6857610100808354040283529160200191610e93565b820191906000526020600020905b815481529060010190602001808311610e7657829003601f168201915b5050505050925081805480602002602001604051908101604052809291908181526020016000905b82821015610f67578382906000526020600020018054610eda90614b62565b80601f0160208091040260200160405190810160405280929190818152602001828054610f0690614b62565b8015610f535780601f10610f2857610100808354040283529160200191610f53565b820191906000526020600020905b815481529060010190602001808311610f3657829003601f168201915b505050505081526020019060010190610ebb565b5050505091509450945094509450509193509193565b600080601060008473ffffffffffffffffffffffffffffffffffffffff1673ffffffffffffffffffffffffffffffffffffffff1681526020019081526020016000206000015414159050919050565b6000600880549050905090565b600073ffffffffffffffffffffffffffffffffffffffff168273ffffffffffffffffffffffffffffffffffffffff160361104b5760006040517f64a0ae920000000000000000000000000000000000000000000000000000000081526004016110429190613f59565b60405180910390fd5b600061105f838361105a61273b565b612755565b90508373ffffffffffffffffffffffffffffffffffffffff168173ffffffffffffffffffffffffffffffffffffffff16146110d5578382826040517f64283d7b0000000000000000000000000000000000000000000000000000000081526004016110cc93929190614e11565b60405180910390fd5b50505050565b60116020528160005260406000206020528060005260406000206000915091509054906101000a900460ff1681565b6000611115836115e0565b821061115a5782826040517fa57d13dc000000000000000000000000000000000000000000000000000000008152600401611151929190614e48565b60405180910390fd5b600660008473ffffffffffffffffffffffffffffffffffffffff1673ffffffffffffffffffffffffffffffffffffffff168152602001908152602001600020600083815260200190815260200160002054905092915050565b6000601060003373ffffffffffffffffffffffffffffffffffffffff1673ffffffffffffffffffffffffffffffffffffffff168152602001908152602001600020905060008160040154826003015461120c9190614ea0565b905060008111611251576040517f08c379a000000000000000000000000000000000000000000000000000000000815260040161124890614f20565b60405180910390fd5b600067016345785d8a0000826112679190614f40565b9050804710156112ac576040517f08c379a00000000000000000000000000000000000000000000000000000000081526004016112a390614fce565b60405180910390fd5b818360040160008282546112c09190614fee565b9250508190555060003373ffffffffffffffffffffffffffffffffffffffff16826040516112ed90615053565b60006040518083038185875af1925050503d806000811461132a576040519150601f19603f3d011682016040523d82523d6000602084013e61132f565b606091505b5050905080611373576040517f08c379a000000000000000000000000000000000000000000000000000000000815260040161136a906150b4565b60405180910390fd5b3373ffffffffffffffffffffffffffffffffffffffff167fbf2d899bf3f0b048d323f97b8b5718c4b17368871db27ac067d00bbff24d707d836040516113b99190613fef565b60405180910390a250505050565b6113e2838383604051806020016040528060008152506119d0565b505050565b600080601060008473ffffffffffffffffffffffffffffffffffffffff1673ffffffffffffffffffffffffffffffffffffffff16815260200190815260200160002090508060040154816003015461143f9190614ea0565b915050919050565b6000611451610fcc565b8210611497576000826040517fa57d13dc00000000000000000000000000000000000000000000000000000000815260040161148e929190614e48565b60405180910390fd5b600882815481106114ab576114aa6150d4565b5b90600052602060002001549050919050565b600f600082815260200190815260200160002060050160009054906101000a900460ff16611520576040517f08c379a000000000000000000000000000000000000000000000000000000000815260040161151790614aa7565b60405180910390fd5b61152933612872565b6000601060003373ffffffffffffffffffffffffffffffffffffffff1673ffffffffffffffffffffffffffffffffffffffff168152602001908152602001600020905080600101600081548092919061158190615103565b9190505550813373ffffffffffffffffffffffffffffffffffffffff167f82d6103ca702d0d8c96409fe40749ce755707937decfbb5fa40c9de89108841860405160405180910390a35050565b60006115d982612676565b9050919050565b60008073ffffffffffffffffffffffffffffffffffffffff168273ffffffffffffffffffffffffffffffffffffffff16036116535760006040517f89c62b6400000000000000000000000000000000000000000000000000000000815260040161164a9190613f59565b60405180910390fd5b600360008373ffffffffffffffffffffffffffffffffffffffff1673ffffffffffffffffffffffffffffffffffffffff168152602001908152602001600020549050919050565b600d81815481106116aa57600080fd5b906000526020600020016000915054906101000a900473ffffffffffffffffffffffffffffffffffffffff1681565b6060600180546116e890614b62565b80601f016020809104026020016040519081016040528092919081815260200182805461171490614b62565b80156117615780601f1061173657610100808354040283529160200191611761565b820191906000526020600020905b81548152906001019060200180831161174457829003601f168201915b5050505050905090565b6000806000806000806000806000601060008b73ffffffffffffffffffffffffffffffffffffffff1673ffffffffffffffffffffffffffffffffffffffff16815260200190815260200160002090506000816000015403611801576040517f08c379a00000000000000000000000000000000000000000000000000000000081526004016117f890615197565b60405180910390fd5b806000015481600101548260020154836003015484600401548560040154866003015461182e9190614ea0565b86600501548760060160009054906101000a900460ff169850985098509850985098509850985050919395975091939597565b600b5481565b61187961187261273b565b8383612921565b5050565b600c5481565b600f6020528060005260406000206000915090508060000180546118a690614b62565b80601f01602080910402602001604051908101604052809291908181526020018280546118d290614b62565b801561191f5780601f106118f45761010080835404028352916020019161191f565b820191906000526020600020905b81548152906001019060200180831161190257829003601f168201915b50505050509080600101805461193490614b62565b80601f016020809104026020016040519081016040528092919081815260200182805461196090614b62565b80156119ad5780601f10611982576101008083540402835291602001916119ad565b820191906000526020600020905b81548152906001019060200180831161199057829003601f168201915b5050505050908060040154908060050160009054906101000a900460ff16905084565b6119db848484610fd9565b6119ef6119e661273b565b85858585612a90565b50505050565b60106020528060005260406000206000915090508060000154908060010154908060020154908060030154908060040154908060050154908060060160009054906101000a900460ff16905087565b6060600d805480602002602001604051908101604052809291908181526020018280548015611ac857602002820191906000526020600020905b8160009054906101000a900473ffffffffffffffffffffffffffffffffffffffff1673ffffffffffffffffffffffffffffffffffffffff1681526020019060010190808311611a7e575b5050505050905090565b606060006001600a54611ae59190614ea0565b67ffffffffffffffff811115611afe57611afd613b9a565b5b604051908082528060200260200182016040528015611b2c5781602001602082028036833780820191505090505b5090506000600190505b600a54811015611b79578082600183611b4f9190614ea0565b81518110611b6057611b5f6150d4565b5b6020026020010181815250508080600101915050611b36565b508091505090565b600e6020528060005260406000206000915054906101000a900460ff1681565b60606000611bae836115e0565b905060008167ffffffffffffffff811115611bcc57611bcb613b9a565b5b604051908082528060200260200182016040528015611bfa5781602001602082028036833780820191505090505b50905060005b82811015611c3e57611c12858261110a565b828281518110611c2557611c246150d4565b5b6020026020010181815250508080600101915050611c00565b508092505050919050565b6060611c5482612676565b506000611c5f612c41565b90506000815111611c7f5760405180602001604052806000815250611caa565b80611c8984612c58565b604051602001611c9a9291906151f3565b6040516020818303038152906040525b915050919050565b606060006001600a54611cc59190614ea0565b905060008167ffffffffffffffff811115611ce357611ce2613b9a565b5b604051908082528060200260200182016040528015611d115781602001602082028036833780820191505090505b5090506000600190505b828111611dc457601160008673ffffffffffffffffffffffffffffffffffffffff1673ffffffffffffffffffffffffffffffffffffffff168152602001908152602001600020600082815260200190815260200160002060009054906101000a900460ff1682600183611d8e9190614ea0565b81518110611d9f57611d9e6150d4565b5b6020026020010190151590811515815250508080611dbc90615103565b915050611d1b565b508092505050919050565b600f600082815260200190815260200160002060050160009054906101000a900460ff16611e32576040517f08c379a0000000000000000000000000000000000000000000000000000000008152600401611e2990614aa7565b60405180910390fd5b611e3b33612872565b601160003373ffffffffffffffffffffffffffffffffffffffff1673ffffffffffffffffffffffffffffffffffffffff168152602001908152602001600020600082815260200190815260200160002060009054906101000a900460ff1615611ed9576040517f08c379a0000000000000000000000000000000000000000000000000000000008152600401611ed090615263565b60405180910390fd5b6000601060003373ffffffffffffffffffffffffffffffffffffffff1673ffffffffffffffffffffffffffffffffffffffff16815260200190815260200160002090506000600f60008481526020019081526020016000209050816002016000815480929190611f4890615103565b91905055508060040154826003016000828254611f659190614fee565b925050819055506001601160003373ffffffffffffffffffffffffffffffffffffffff1673ffffffffffffffffffffffffffffffffffffffff168152602001908152602001600020600085815260200190815260200160002060006101000a81548160ff021916908315150217905550823373ffffffffffffffffffffffffffffffffffffffff167f6ed0d2f7523beeef2d0bc53ae25a8891202fcda22bf8a4cb4771de460efc65fd83600401546040516120209190613fef565b60405180910390a361203133612d26565b505050565b60608060606000600f600086815260200190815260200160002090508060050160009054906101000a900460ff166120a3576040517f08c379a000000000000000000000000000000000000000000000000000000000815260040161209a90614aa7565b60405180910390fd5b6000816003018054905090508067ffffffffffffffff8111156120c9576120c8613b9a565b5b6040519080825280602002602001820160405280156120fc57816020015b60608152602001906001900390816120e75790505b5094508067ffffffffffffffff81111561211957612118613b9a565b5b60405190808252806020026020018201604052801561214c57816020015b60608152602001906001900390816121375790505b5093508067ffffffffffffffff81111561216957612168613b9a565b5b6040519080825280602002602001820160405280156121975781602001602082028036833780820191505090505b50925060005b8181101561239c5760008360030182815481106121bd576121bc6150d4565b5b906000526020600020906003020190508060000180546121dc90614b62565b80601f016020809104026020016040519081016040528092919081815260200182805461220890614b62565b80156122555780601f1061222a57610100808354040283529160200191612255565b820191906000526020600020905b81548152906001019060200180831161223857829003601f168201915b505050505087838151811061226d5761226c6150d4565b5b602002602001018190525080600101805480602002602001604051908101604052809291908181526020016000905b828210156123485783829060005260206000200180546122bb90614b62565b80601f01602080910402602001604051908101604052809291908181526020018280546122e790614b62565b80156123345780601f1061230957610100808354040283529160200191612334565b820191906000526020600020905b81548152906001019060200180831161231757829003601f168201915b50505050508152602001906001019061229c565b5050505086838151811061235f5761235e6150d4565b5b60200260200101819052508060020154858381518110612382576123816150d4565b5b60200260200101818152505050808060010191505061219d565b5050509193909250565b6000600560008473ffffffffffffffffffffffffffffffffffffffff1673ffffffffffffffffffffffffffffffffffffffff16815260200190815260200160002060008373ffffffffffffffffffffffffffffffffffffffff1673ffffffffffffffffffffffffffffffffffffffff16815260200190815260200160002060009054906101000a900460ff16905092915050565b600e60003373ffffffffffffffffffffffffffffffffffffffff1673ffffffffffffffffffffffffffffffffffffffff16815260200190815260200160002060009054906101000a900460ff166124c6576040517f08c379a00000000000000000000000000000000000000000000000000000000081526004016124bd90614a3b565b60405180910390fd5b6000600a5490506000600f60008381526020019081526020016000209050858160000190816124f59190614d3f565b50848160010190816125079190614d3f565b50838160020190805190602001906125209291906139a0565b5082816004018190555060018160050160006101000a81548160ff021916908315150217905550817f48b2db219e455c37aa49fa27ddf3d239abe9fbce6ecd5044eae6aa954f11376060405160405180910390a2600a600081548092919061258790615103565b9190505550505050505050565b60007f80ac58cd000000000000000000000000000000000000000000000000000000007bffffffffffffffffffffffffffffffffffffffffffffffffffffffff1916827bffffffffffffffffffffffffffffffffffffffffffffffffffffffff1916148061265f57507f5b5e139f000000000000000000000000000000000000000000000000000000007bffffffffffffffffffffffffffffffffffffffffffffffffffffffff1916827bffffffffffffffffffffffffffffffffffffffffffffffffffffffff1916145b8061266f575061266e82612e77565b5b9050919050565b60008061268283612ee1565b9050600073ffffffffffffffffffffffffffffffffffffffff168173ffffffffffffffffffffffffffffffffffffffff16036126f557826040517f7e2732890000000000000000000000000000000000000000000000000000000081526004016126ec9190613fef565b60405180910390fd5b80915050919050565b60006004600083815260200190815260200160002060009054906101000a900473ffffffffffffffffffffffffffffffffffffffff169050919050565b600033905090565b6127508383836001612f1e565b505050565b6000806127638585856130e3565b9050600073ffffffffffffffffffffffffffffffffffffffff168173ffffffffffffffffffffffffffffffffffffffff16036127a7576127a2846132fd565b6127e6565b8473ffffffffffffffffffffffffffffffffffffffff168173ffffffffffffffffffffffffffffffffffffffff16146127e5576127e48185613346565b5b5b600073ffffffffffffffffffffffffffffffffffffffff168573ffffffffffffffffffffffffffffffffffffffff16036128285761282384613431565b612867565b8473ffffffffffffffffffffffffffffffffffffffff168173ffffffffffffffffffffffffffffffffffffffff1614612866576128658585613502565b5b5b809150509392505050565b6000601060008373ffffffffffffffffffffffffffffffffffffffff1673ffffffffffffffffffffffffffffffffffffffff168152602001908152602001600020600001540361291e57600b54601060008373ffffffffffffffffffffffffffffffffffffffff1673ffffffffffffffffffffffffffffffffffffffff16815260200190815260200160002060000181905550600b600081548092919061291890615103565b91905055505b50565b600073ffffffffffffffffffffffffffffffffffffffff168273ffffffffffffffffffffffffffffffffffffffff160361299257816040517f5b08ba180000000000000000000000000000000000000000000000000000000081526004016129899190613f59565b60405180910390fd5b80600560008573ffffffffffffffffffffffffffffffffffffffff1673ffffffffffffffffffffffffffffffffffffffff16815260200190815260200160002060008473ffffffffffffffffffffffffffffffffffffffff1673ffffffffffffffffffffffffffffffffffffffff16815260200190815260200160002060006101000a81548160ff0219169083151502179055508173ffffffffffffffffffffffffffffffffffffffff168373ffffffffffffffffffffffffffffffffffffffff167f17307eab39ab6107e8899845ad3d59bd9653f200f220920489ca2b5937696c3183604051612a839190613b2e565b60405180910390a3505050565b60008373ffffffffffffffffffffffffffffffffffffffff163b1115612c3a578273ffffffffffffffffffffffffffffffffffffffff1663150b7a02868685856040518563ffffffff1660e01b8152600401612aef94939291906152d8565b6020604051808303816000875af1925050508015612b2b57506040513d601f19601f82011682018060405250810190612b289190615339565b60015b612baf573d8060008114612b5b576040519150601f19603f3d011682016040523d82523d6000602084013e612b60565b606091505b506000815103612ba757836040517f64a0ae92000000000000000000000000000000000000000000000000000000008152600401612b9e9190613f59565b60405180910390fd5b805160208201fd5b63150b7a0260e01b7bffffffffffffffffffffffffffffffffffffffffffffffffffffffff1916817bffffffffffffffffffffffffffffffffffffffffffffffffffffffff191614612c3857836040517f64a0ae92000000000000000000000000000000000000000000000000000000008152600401612c2f9190613f59565b60405180910390fd5b505b5050505050565b606060405180602001604052806000815250905090565b606060006001612c678461358d565b01905060008167ffffffffffffffff811115612c8657612c85613b9a565b5b6040519080825280601f01601f191660200182016040528015612cb85781602001600182028036833780820191505090505b509050600082602083010190505b600115612d1b578080600190039150507f3031323334353637383961626364656600000000000000000000000000000000600a86061a8153600a8581612d0f57612d0e615366565b5b04945060008503612cc6575b819350505050919050565b6000601060008373ffffffffffffffffffffffffffffffffffffffff1673ffffffffffffffffffffffffffffffffffffffff168152602001908152602001600020905060006101f48260030154612d7d9190615395565b90505b8082600501541015612e72576000826005016000815480929190612da390615103565b919050555060058360050154148015612dcb57508260060160009054906101000a900460ff16155b15612df2576001905060018360060160006101000a81548160ff0219169083151502179055505b6000600c549050600c6000815480929190612e0c90615103565b9190505550612e1b85826136e0565b8473ffffffffffffffffffffffffffffffffffffffff167f3d9976d782904e93fbbd135c5aa2da18ae4b1cb909dbe63fbc8eae916cde190a8284604051612e639291906153c6565b60405180910390a25050612d80565b505050565b60007f01ffc9a7000000000000000000000000000000000000000000000000000000007bffffffffffffffffffffffffffffffffffffffffffffffffffffffff1916827bffffffffffffffffffffffffffffffffffffffffffffffffffffffff1916149050919050565b60006002600083815260200190815260200160002060009054906101000a900473ffffffffffffffffffffffffffffffffffffffff169050919050565b8080612f575750600073ffffffffffffffffffffffffffffffffffffffff168273ffffffffffffffffffffffffffffffffffffffff1614155b1561308b576000612f6784612676565b9050600073ffffffffffffffffffffffffffffffffffffffff168373ffffffffffffffffffffffffffffffffffffffff1614158015612fd257508273ffffffffffffffffffffffffffffffffffffffff168173ffffffffffffffffffffffffffffffffffffffff1614155b8015612fe55750612fe381846123a6565b155b1561302757826040517fa9fbf51f00000000000000000000000000000000000000000000000000000000815260040161301e9190613f59565b60405180910390fd5b811561308957838573ffffffffffffffffffffffffffffffffffffffff168273ffffffffffffffffffffffffffffffffffffffff167f8c5be1e5ebec7d5bd14f71427d1e84f3dd0314c0f7b2291e5b200ac8c7c3b92560405160405180910390a45b505b836004600085815260200190815260200160002060006101000a81548173ffffffffffffffffffffffffffffffffffffffff021916908373ffffffffffffffffffffffffffffffffffffffff16021790555050505050565b6000806130ef84612ee1565b9050600073ffffffffffffffffffffffffffffffffffffffff168373ffffffffffffffffffffffffffffffffffffffff1614613131576131308184866136fe565b5b600073ffffffffffffffffffffffffffffffffffffffff168173ffffffffffffffffffffffffffffffffffffffff16146131c257613173600085600080612f1e565b6001600360008373ffffffffffffffffffffffffffffffffffffffff1673ffffffffffffffffffffffffffffffffffffffff168152602001908152602001600020600082825403925050819055505b600073ffffffffffffffffffffffffffffffffffffffff168573ffffffffffffffffffffffffffffffffffffffff1614613245576001600360008773ffffffffffffffffffffffffffffffffffffffff1673ffffffffffffffffffffffffffffffffffffffff168152602001908152602001600020600082825401925050819055505b846002600086815260200190815260200160002060006101000a81548173ffffffffffffffffffffffffffffffffffffffff021916908373ffffffffffffffffffffffffffffffffffffffff160217905550838573ffffffffffffffffffffffffffffffffffffffff168273ffffffffffffffffffffffffffffffffffffffff167fddf252ad1be2c89b69c2b068fc378daa952ba7f163c4a11628f55a4df523b3ef60405160405180910390a4809150509392505050565b6008805490506009600083815260200190815260200160002081905550600881908060018154018082558091505060019003906000526020600020016000909190919091505550565b6000613351836115e0565b90506000600760008481526020019081526020016000205490506000600660008673ffffffffffffffffffffffffffffffffffffffff1673ffffffffffffffffffffffffffffffffffffffff16815260200190815260200160002090508282146133fd5760008160008581526020019081526020016000205490508082600085815260200190815260200160002081905550826007600083815260200190815260200160002081905550505b6007600085815260200190815260200160002060009055806000848152602001908152602001600020600090555050505050565b600060016008805490506134459190614ea0565b9050600060096000848152602001908152602001600020549050600060088381548110613475576134746150d4565b5b906000526020600020015490508060088381548110613497576134966150d4565b5b9060005260206000200181905550816009600083815260200190815260200160002081905550600960008581526020019081526020016000206000905560088054806134e6576134e56153ef565b5b6001900381819060005260206000200160009055905550505050565b6000600161350f846115e0565b6135199190614ea0565b905081600660008573ffffffffffffffffffffffffffffffffffffffff1673ffffffffffffffffffffffffffffffffffffffff168152602001908152602001600020600083815260200190815260200160002081905550806007600084815260200190815260200160002081905550505050565b600080600090507a184f03e93ff9f4daa797ed6e38ed64bf6a1f01000000000000000083106135eb577a184f03e93ff9f4daa797ed6e38ed64bf6a1f01000000000000000083816135e1576135e0615366565b5b0492506040810190505b6d04ee2d6d415b85acef81000000008310613628576d04ee2d6d415b85acef8100000000838161361e5761361d615366565b5b0492506020810190505b662386f26fc10000831061365757662386f26fc10000838161364d5761364c615366565b5b0492506010810190505b6305f5e1008310613680576305f5e100838161367657613675615366565b5b0492506008810190505b61271083106136a557612710838161369b5761369a615366565b5b0492506004810190505b606483106136c857606483816136be576136bd615366565b5b0492506002810190505b600a83106136d7576001810190505b80915050919050565b6136fa8282604051806020016040528060008152506137c2565b5050565b6137098383836137e6565b6137bd57600073ffffffffffffffffffffffffffffffffffffffff168373ffffffffffffffffffffffffffffffffffffffff160361377e57806040517f7e2732890000000000000000000000000000000000000000000000000000000081526004016137759190613fef565b60405180910390fd5b81816040517f177e802f0000000000000000000000000000000000000000000000000000000081526004016137b4929190614e48565b60405180910390fd5b505050565b6137cc83836138a7565b6137e16137d761273b565b6000858585612a90565b505050565b60008073ffffffffffffffffffffffffffffffffffffffff168373ffffffffffffffffffffffffffffffffffffffff161415801561389e57508273ffffffffffffffffffffffffffffffffffffffff168473ffffffffffffffffffffffffffffffffffffffff16148061385f575061385e84846123a6565b5b8061389d57508273ffffffffffffffffffffffffffffffffffffffff16613885836126fe565b73ffffffffffffffffffffffffffffffffffffffff16145b5b90509392505050565b600073ffffffffffffffffffffffffffffffffffffffff168273ffffffffffffffffffffffffffffffffffffffff16036139195760006040517f64a0ae920000000000000000000000000000000000000000000000000000000081526004016139109190613f59565b60405180910390fd5b600061392783836000612755565b9050600073ffffffffffffffffffffffffffffffffffffffff168173ffffffffffffffffffffffffffffffffffffffff161461399b5760006040517f73c6ac6e0000000000000000000000000000000000000000000000000000000081526004016139929190613f59565b60405180910390fd5b505050565b8280548282559060005260206000209081019282156139e8579160200282015b828111156139e75782518290816139d79190614d3f565b50916020019190600101906139c0565b5b5090506139f591906139f9565b5090565b5b80821115613a195760008181613a109190613a1d565b506001016139fa565b5090565b508054613a2990614b62565b6000825580601f10613a3b5750613a5a565b601f016020900490600052602060002090810190613a599190613a5d565b5b50565b5b80821115613a76576000816000905550600101613a5e565b5090565b6000604051905090565b600080fd5b600080fd5b60007fffffffff0000000000000000000000000000000000000000000000000000000082169050919050565b613ac381613a8e565b8114613ace57600080fd5b50565b600081359050613ae081613aba565b92915050565b600060208284031215613afc57613afb613a84565b5b6000613b0a84828501613ad1565b91505092915050565b60008115159050919050565b613b2881613b13565b82525050565b6000602082019050613b436000830184613b1f565b92915050565b6000819050919050565b613b5c81613b49565b8114613b6757600080fd5b50565b600081359050613b7981613b53565b92915050565b600080fd5b600080fd5b6000601f19601f8301169050919050565b7f4e487b7100000000000000000000000000000000000000000000000000000000600052604160045260246000fd5b613bd282613b89565b810181811067ffffffffffffffff82111715613bf157613bf0613b9a565b5b80604052505050565b6000613c04613a7a565b9050613c108282613bc9565b919050565b600067ffffffffffffffff821115613c3057613c2f613b9a565b5b613c3982613b89565b9050602081019050919050565b82818337600083830152505050565b6000613c68613c6384613c15565b613bfa565b905082815260208101848484011115613c8457613c83613b84565b5b613c8f848285613c46565b509392505050565b600082601f830112613cac57613cab613b7f565b5b8135613cbc848260208601613c55565b91505092915050565b600067ffffffffffffffff821115613ce057613cdf613b9a565b5b602082029050602081019050919050565b600080fd5b6000613d09613d0484613cc5565b613bfa565b90508083825260208201905060208402830185811115613d2c57613d2b613cf1565b5b835b81811015613d7357803567ffffffffffffffff811115613d5157613d50613b7f565b5b808601613d5e8982613c97565b85526020850194505050602081019050613d2e565b5050509392505050565b600082601f830112613d9257613d91613b7f565b5b8135613da2848260208601613cf6565b91505092915050565b60008060008060808587031215613dc557613dc4613a84565b5b6000613dd387828801613b6a565b945050602085013567ffffffffffffffff811115613df457613df3613a89565b5b613e0087828801613c97565b935050604085013567ffffffffffffffff811115613e2157613e20613a89565b5b613e2d87828801613d7d565b9250506060613e3e87828801613b6a565b91505092959194509250565b600081519050919050565b600082825260208201905092915050565b60005b83811015613e84578082015181840152602081019050613e69565b60008484015250505050565b6000613e9b82613e4a565b613ea58185613e55565b9350613eb5818560208601613e66565b613ebe81613b89565b840191505092915050565b60006020820190508181036000830152613ee38184613e90565b905092915050565b600060208284031215613f0157613f00613a84565b5b6000613f0f84828501613b6a565b91505092915050565b600073ffffffffffffffffffffffffffffffffffffffff82169050919050565b6000613f4382613f18565b9050919050565b613f5381613f38565b82525050565b6000602082019050613f6e6000830184613f4a565b92915050565b613f7d81613f38565b8114613f8857600080fd5b50565b600081359050613f9a81613f74565b92915050565b60008060408385031215613fb757613fb6613a84565b5b6000613fc585828601613f8b565b9250506020613fd685828601613b6a565b9150509250929050565b613fe981613b49565b82525050565b60006020820190506140046000830184613fe0565b92915050565b600081519050919050565b600082825260208201905092915050565b6000819050602082019050919050565b600082825260208201905092915050565b600061405282613e4a565b61405c8185614036565b935061406c818560208601613e66565b61407581613b89565b840191505092915050565b600061408c8383614047565b905092915050565b6000602082019050919050565b60006140ac8261400a565b6140b68185614015565b9350836020820285016140c885614026565b8060005b8581101561410457848403895281516140e58582614080565b94506140f083614094565b925060208a019950506001810190506140cc565b50829750879550505050505092915050565b600060808201905081810360008301526141308187613e90565b905081810360208301526141448186613e90565b9050818103604083015261415881856140a1565b90506141676060830184613fe0565b95945050505050565b60006020828403121561418657614185613a84565b5b600061419484828501613f8b565b91505092915050565b6000806000606084860312156141b6576141b5613a84565b5b60006141c486828701613f8b565b93505060206141d586828701613f8b565b92505060406141e686828701613b6a565b9150509250925092565b600061010082019050614206600083018b613fe0565b614213602083018a613fe0565b6142206040830189613fe0565b61422d6060830188613fe0565b61423a6080830187613fe0565b61424760a0830186613fe0565b61425460c0830185613fe0565b61426160e0830184613b1f565b9998505050505050505050565b61427781613b13565b811461428257600080fd5b50565b6000813590506142948161426e565b92915050565b600080604083850312156142b1576142b0613a84565b5b60006142bf85828601613f8b565b92505060206142d085828601614285565b9150509250929050565b600060808201905081810360008301526142f48187613e90565b905081810360208301526143088186613e90565b90506143176040830185613fe0565b6143246060830184613b1f565b95945050505050565b600067ffffffffffffffff82111561434857614347613b9a565b5b61435182613b89565b9050602081019050919050565b600061437161436c8461432d565b613bfa565b90508281526020810184848401111561438d5761438c613b84565b5b614398848285613c46565b509392505050565b600082601f8301126143b5576143b4613b7f565b5b81356143c584826020860161435e565b91505092915050565b600080600080608085870312156143e8576143e7613a84565b5b60006143f687828801613f8b565b945050602061440787828801613f8b565b935050604061441887828801613b6a565b925050606085013567ffffffffffffffff81111561443957614438613a89565b5b614445878288016143a0565b91505092959194509250565b600060e082019050614466600083018a613fe0565b6144736020830189613fe0565b6144806040830188613fe0565b61448d6060830187613fe0565b61449a6080830186613fe0565b6144a760a0830185613fe0565b6144b460c0830184613b1f565b98975050505050505050565b600081519050919050565b600082825260208201905092915050565b6000819050602082019050919050565b6144f581613f38565b82525050565b600061450783836144ec565b60208301905092915050565b6000602082019050919050565b600061452b826144c0565b61453581856144cb565b9350614540836144dc565b8060005b8381101561457157815161455888826144fb565b975061456383614513565b925050600181019050614544565b5085935050505092915050565b600060208201905081810360008301526145988184614520565b905092915050565b600081519050919050565b600082825260208201905092915050565b6000819050602082019050919050565b6145d581613b49565b82525050565b60006145e783836145cc565b60208301905092915050565b6000602082019050919050565b600061460b826145a0565b61461581856145ab565b9350614620836145bc565b8060005b8381101561465157815161463888826145db565b9750614643836145f3565b925050600181019050614624565b5085935050505092915050565b600060208201905081810360008301526146788184614600565b905092915050565b600081519050919050565b600082825260208201905092915050565b6000819050602082019050919050565b6146b581613b13565b82525050565b60006146c783836146ac565b60208301905092915050565b6000602082019050919050565b60006146eb82614680565b6146f5818561468b565b93506147008361469c565b8060005b8381101561473157815161471888826146bb565b9750614723836146d3565b925050600181019050614704565b5085935050505092915050565b6000602082019050818103600083015261475881846146e0565b905092915050565b600081519050919050565b600082825260208201905092915050565b6000819050602082019050919050565b600082825260208201905092915050565b60006147a88261400a565b6147b2818561478c565b9350836020820285016147c485614026565b8060005b8581101561480057848403895281516147e18582614080565b94506147ec83614094565b925060208a019950506001810190506147c8565b50829750879550505050505092915050565b600061481e838361479d565b905092915050565b6000602082019050919050565b600061483e82614760565b614848818561476b565b93508360208202850161485a8561477c565b8060005b8581101561489657848403895281516148778582614812565b945061488283614826565b925060208a0199505060018101905061485e565b50829750879550505050505092915050565b600060608201905081810360008301526148c281866140a1565b905081810360208301526148d68185614833565b905081810360408301526148ea8184614600565b9050949350505050565b6000806040838503121561490b5761490a613a84565b5b600061491985828601613f8b565b925050602061492a85828601613f8b565b9150509250929050565b6000806000806080858703121561494e5761494d613a84565b5b600085013567ffffffffffffffff81111561496c5761496b613a89565b5b61497887828801613c97565b945050602085013567ffffffffffffffff81111561499957614998613a89565b5b6149a587828801613c97565b935050604085013567ffffffffffffffff8111156149c6576149c5613a89565b5b6149d287828801613d7d565b92505060606149e387828801613b6a565b91505092959194509250565b7f4e6f7420617574686f72697a6564000000000000000000000000000000000000600082015250565b6000614a25600e83613e55565b9150614a30826149ef565b602082019050919050565b60006020820190508181036000830152614a5481614a18565b9050919050565b7f436f6e74656e74206e6f7420666f756e64000000000000000000000000000000600082015250565b6000614a91601183613e55565b9150614a9c82614a5b565b602082019050919050565b60006020820190508181036000830152614ac081614a84565b9050919050565b7f496e76616c696420616e7377657220696e646578000000000000000000000000600082015250565b6000614afd601483613e55565b9150614b0882614ac7565b602082019050919050565b60006020820190508181036000830152614b2c81614af0565b9050919050565b7f4e487b7100000000000000000000000000000000000000000000000000000000600052602260045260246000fd5b60006002820490506001821680614b7a57607f821691505b602082108103614b8d57614b8c614b33565b5b50919050565b60008190508160005260206000209050919050565b60006020601f8301049050919050565b600082821b905092915050565b600060088302614bf57fffffffffffffffffffffffffffffffffffffffffffffffffffffffffffffffff82614bb8565b614bff8683614bb8565b95508019841693508086168417925050509392505050565b6000819050919050565b6000614c3c614c37614c3284613b49565b614c17565b613b49565b9050919050565b6000819050919050565b614c5683614c21565b614c6a614c6282614c43565b848454614bc5565b825550505050565b600090565b614c7f614c72565b614c8a818484614c4d565b505050565b5b81811015614cae57614ca3600082614c77565b600181019050614c90565b5050565b601f821115614cf357614cc481614b93565b614ccd84614ba8565b81016020851015614cdc578190505b614cf0614ce885614ba8565b830182614c8f565b50505b505050565b600082821c905092915050565b6000614d1660001984600802614cf8565b1980831691505092915050565b6000614d2f8383614d05565b9150826002028217905092915050565b614d4882613e4a565b67ffffffffffffffff811115614d6157614d60613b9a565b5b614d6b8254614b62565b614d76828285614cb2565b600060209050601f831160018114614da95760008415614d97578287015190505b614da18582614d23565b865550614e09565b601f198416614db786614b93565b60005b82811015614ddf57848901518255600182019150602085019450602081019050614dba565b86831015614dfc5784890151614df8601f891682614d05565b8355505b6001600288020188555050505b505050505050565b6000606082019050614e266000830186613f4a565b614e336020830185613fe0565b614e406040830184613f4a565b949350505050565b6000604082019050614e5d6000830185613f4a565b614e6a6020830184613fe0565b9392505050565b7f4e487b7100000000000000000000000000000000000000000000000000000000600052601160045260246000fd5b6000614eab82613b49565b9150614eb683613b49565b9250828203905081811115614ece57614ecd614e71565b5b92915050565b7f4e6f20706f696e747320746f2072656465656d00000000000000000000000000600082015250565b6000614f0a601383613e55565b9150614f1582614ed4565b602082019050919050565b60006020820190508181036000830152614f3981614efd565b9050919050565b6000614f4b82613b49565b9150614f5683613b49565b9250828202614f6481613b49565b91508282048414831517614f7b57614f7a614e71565b5b5092915050565b7f496e73756666696369656e7420636f6e74726163742062616c616e6365000000600082015250565b6000614fb8601d83613e55565b9150614fc382614f82565b602082019050919050565b60006020820190508181036000830152614fe781614fab565b9050919050565b6000614ff982613b49565b915061500483613b49565b925082820190508082111561501c5761501b614e71565b5b92915050565b600081905092915050565b50565b600061503d600083615022565b91506150488261502d565b600082019050919050565b600061505e82615030565b9150819050919050565b7f4661696c656420746f2073656e64205846490000000000000000000000000000600082015250565b600061509e601283613e55565b91506150a982615068565b602082019050919050565b600060208201905081810360008301526150cd81615091565b9050919050565b7f4e487b7100000000000000000000000000000000000000000000000000000000600052603260045260246000fd5b600061510e82613b49565b91507fffffffffffffffffffffffffffffffffffffffffffffffffffffffffffffffff82036151405761513f614e71565b5b600182019050919050565b7f55736572206e6f74207265676973746572656400000000000000000000000000600082015250565b6000615181601383613e55565b915061518c8261514b565b602082019050919050565b600060208201905081810360008301526151b081615174565b9050919050565b600081905092915050565b60006151cd82613e4a565b6151d781856151b7565b93506151e7818560208601613e66565b80840191505092915050565b60006151ff82856151c2565b915061520b82846151c2565b91508190509392505050565b7f416c726561647920636f6d706c65746564000000000000000000000000000000600082015250565b600061524d601183613e55565b915061525882615217565b602082019050919050565b6000602082019050818103600083015261527c81615240565b9050919050565b600081519050919050565b600082825260208201905092915050565b60006152aa82615283565b6152b4818561528e565b93506152c4818560208601613e66565b6152cd81613b89565b840191505092915050565b60006080820190506152ed6000830187613f4a565b6152fa6020830186613f4a565b6153076040830185613fe0565b8181036060830152615319818461529f565b905095945050505050565b60008151905061533381613aba565b92915050565b60006020828403121561534f5761534e613a84565b5b600061535d84828501615324565b91505092915050565b7f4e487b7100000000000000000000000000000000000000000000000000000000600052601260045260246000fd5b60006153a082613b49565b91506153ab83613b49565b9250826153bb576153ba615366565b5b828204905092915050565b60006040820190506153db6000830185613fe0565b6153e86020830184613b1f565b9392505050565b7f4e487b7100000000000000000000000000000000000000000000000000000000600052603160045260246000fdfea264697066735822122005cab11cf356054af7f2061bc85de409bad38553848abf623d9c01b29423570764736f6c634300081b0033",
  "linkReferences": {},
  "deployedLinkReferences": {}
}