{
  "_format": "hh-sol-artifact-1",
  "contractName": "EduTechQuiz",
  "sourceName": "contracts/LearnBlock.sol",
  "abi": [
    {
      "inputs": [
        {
          "internalType": "address[]",
          "name": "_trustees",
          "type": "address[]"
        }
      ],
      "stateMutability": "nonpayable",
      "type": "constructor"
    },
    {
      "inputs": [],
      "name": "ERC721EnumerableForbiddenBatchMint",
      "type": "error"
    },
    {
      "inputs": [
        {
          "internalType": "address",
          "name": "sender",
          "type": "address"
        },
        {
          "internalType": "uint256",
          "name": "tokenId",
          "type": "uint256"
        },
        {
          "internalType": "address",
          "name": "owner",
          "type": "address"
        }
      ],
      "name": "ERC721IncorrectOwner",
      "type": "error"
    },
    {
      "inputs": [
        {
          "internalType": "address",
          "name": "operator",
          "type": "address"
        },
        {
          "internalType": "uint256",
          "name": "tokenId",
          "type": "uint256"
        }
      ],
      "name": "ERC721InsufficientApproval",
      "type": "error"
    },
    {
      "inputs": [
        {
          "internalType": "address",
          "name": "approver",
          "type": "address"
        }
      ],
      "name": "ERC721InvalidApprover",
      "type": "error"
    },
    {
      "inputs": [
        {
          "internalType": "address",
          "name": "operator",
          "type": "address"
        }
      ],
      "name": "ERC721InvalidOperator",
      "type": "error"
    },
    {
      "inputs": [
        {
          "internalType": "address",
          "name": "owner",
          "type": "address"
        }
      ],
      "name": "ERC721InvalidOwner",
      "type": "error"
    },
    {
      "inputs": [
        {
          "internalType": "address",
          "name": "receiver",
          "type": "address"
        }
      ],
      "name": "ERC721InvalidReceiver",
      "type": "error"
    },
    {
      "inputs": [
        {
          "internalType": "address",
          "name": "sender",
          "type": "address"
        }
      ],
      "name": "ERC721InvalidSender",
      "type": "error"
    },
    {
      "inputs": [
        {
          "internalType": "uint256",
          "name": "tokenId",
          "type": "uint256"
        }
      ],
      "name": "ERC721NonexistentToken",
      "type": "error"
    },
    {
      "inputs": [
        {
          "internalType": "address",
          "name": "owner",
          "type": "address"
        },
        {
          "internalType": "uint256",
          "name": "index",
          "type": "uint256"
        }
      ],
      "name": "ERC721OutOfBoundsIndex",
      "type": "error"
    },
    {
      "anonymous": false,
      "inputs": [
        {
          "indexed": true,
          "internalType": "address",
          "name": "owner",
          "type": "address"
        },
        {
          "indexed": true,
          "internalType": "address",
          "name": "approved",
          "type": "address"
        },
        {
          "indexed": true,
          "internalType": "uint256",
          "name": "tokenId",
          "type": "uint256"
        }
      ],
      "name": "Approval",
      "type": "event"
    },
    {
      "anonymous": false,
      "inputs": [
        {
          "indexed": true,
          "internalType": "address",
          "name": "owner",
          "type": "address"
        },
        {
          "indexed": true,
          "internalType": "address",
          "name": "operator",
          "type": "address"
        },
        {
          "indexed": false,
          "internalType": "bool",
          "name": "approved",
          "type": "bool"
        }
      ],
      "name": "ApprovalForAll",
      "type": "event"
    },
    {
      "anonymous": false,
      "inputs": [
        {
          "indexed": true,
          "internalType": "address",
          "name": "user",
          "type": "address"
        },
        {
          "indexed": true,
          "internalType": "uint256",
          "name": "contentId",
          "type": "uint256"
        }
      ],
      "name": "ArticleRead",
      "type": "event"
    },
    {
      "anonymous": false,
      "inputs": [
        {
          "indexed": true,
          "internalType": "address",
          "name": "user",
          "type": "address"
        },
        {
          "indexed": false,
          "internalType": "uint256",
          "name": "badgeId",
          "type": "uint256"
        },
        {
          "indexed": false,
          "internalType": "bool",
          "name": "isGolden",
          "type": "bool"
        }
      ],
      "name": "BadgeMinted",
      "type": "event"
    },
    {
      "anonymous": false,
      "inputs": [
        {
          "indexed": true,
          "internalType": "uint256",
          "name": "contentId",
          "type": "uint256"
        }
      ],
      "name": "ContentRegistered",
      "type": "event"
    },
    {
      "anonymous": false,
      "inputs": [
        {
          "indexed": true,
          "internalType": "address",
          "name": "user",
          "type": "address"
        },
        {
          "indexed": true,
          "internalType": "uint256",
          "name": "contentId",
          "type": "uint256"
        },
        {
          "indexed": false,
          "internalType": "uint256",
          "name": "points",
          "type": "uint256"
        }
      ],
      "name": "QuizTaken",
      "type": "event"
    },
    {
      "anonymous": false,
      "inputs": [
        {
          "indexed": true,
          "internalType": "address",
          "name": "from",
          "type": "address"
        },
        {
          "indexed": true,
          "internalType": "address",
          "name": "to",
          "type": "address"
        },
        {
          "indexed": true,
          "internalType": "uint256",
          "name": "tokenId",
          "type": "uint256"
        }
      ],
      "name": "Transfer",
      "type": "event"
    },
    {
      "anonymous": false,
      "inputs": [
        {
          "indexed": true,
          "internalType": "address",
          "name": "user",
          "type": "address"
        },
        {
          "indexed": false,
          "internalType": "uint256",
          "name": "userId",
          "type": "uint256"
        }
      ],
      "name": "UserRegistered",
      "type": "event"
    },
    {
      "anonymous": false,
      "inputs": [
        {
          "indexed": true,
          "internalType": "address",
          "name": "user",
          "type": "address"
        },
        {
          "indexed": false,
          "internalType": "uint256",
          "name": "amount",
          "type": "uint256"
        }
      ],
      "name": "XFIRewardClaimed",
      "type": "event"
    },
    {
      "inputs": [
        {
          "internalType": "uint256",
          "name": "contentId",
          "type": "uint256"
        },
        {
          "internalType": "string",
          "name": "question",
          "type": "string"
        },
        {
          "internalType": "string[]",
          "name": "options",
          "type": "string[]"
        },
        {
          "internalType": "uint256",
          "name": "correctAnswerIndex",
          "type": "uint256"
        }
      ],
      "name": "addQuizQuestion",
      "outputs": [],
      "stateMutability": "nonpayable",
      "type": "function"
    },
    {
      "inputs": [
        {
          "internalType": "address",
          "name": "to",
          "type": "address"
        },
        {
          "internalType": "uint256",
          "name": "tokenId",
          "type": "uint256"
        }
      ],
      "name": "approve",
      "outputs": [],
      "stateMutability": "nonpayable",
      "type": "function"
    },
    {
      "inputs": [
        {
          "internalType": "address",
          "name": "owner",
          "type": "address"
        }
      ],
      "name": "balanceOf",
      "outputs": [
        {
          "internalType": "uint256",
          "name": "",
          "type": "uint256"
        }
      ],
      "stateMutability": "view",
      "type": "function"
    },
    {
      "inputs": [],
      "name": "claimXFIReward",
      "outputs": [],
      "stateMutability": "nonpayable",
      "type": "function"
    },
    {
      "inputs": [
        {
          "internalType": "uint256",
          "name": "",
          "type": "uint256"
        }
      ],
      "name": "contents",
      "outputs": [
        {
          "internalType": "string",
          "name": "title",
          "type": "string"
        },
        {
          "internalType": "string",
          "name": "body",
          "type": "string"
        },
        {
          "internalType": "uint256",
          "name": "pointReward",
          "type": "uint256"
        },
        {
          "internalType": "bool",
          "name": "exists",
          "type": "bool"
        }
      ],
      "stateMutability": "view",
      "type": "function"
    },
    {
      "inputs": [],
      "name": "getAllContentIds",
      "outputs": [
        {
          "internalType": "uint256[]",
          "name": "",
          "type": "uint256[]"
        }
      ],
      "stateMutability": "view",
      "type": "function"
    },
    {
      "inputs": [
        {
          "internalType": "uint256",
          "name": "tokenId",
          "type": "uint256"
        }
      ],
      "name": "getApproved",
      "outputs": [
        {
          "internalType": "address",
          "name": "",
          "type": "address"
        }
      ],
      "stateMutability": "view",
      "type": "function"
    },
    {
      "inputs": [
        {
          "internalType": "uint256",
          "name": "contentId",
          "type": "uint256"
        }
      ],
      "name": "getContent",
      "outputs": [
        {
          "internalType": "string",
          "name": "title",
          "type": "string"
        },
        {
          "internalType": "string",
          "name": "body",
          "type": "string"
        },
        {
          "internalType": "string[]",
          "name": "sources",
          "type": "string[]"
        },
        {
          "internalType": "uint256",
          "name": "pointReward",
          "type": "uint256"
        }
      ],
      "stateMutability": "view",
      "type": "function"
    },
    {
      "inputs": [
        {
          "internalType": "uint256",
          "name": "contentId",
          "type": "uint256"
        }
      ],
      "name": "getQuizQuestions",
      "outputs": [
        {
          "internalType": "string[]",
          "name": "questions",
          "type": "string[]"
        },
        {
          "internalType": "string[][]",
          "name": "options",
          "type": "string[][]"
        },
        {
          "internalType": "uint256[]",
          "name": "correctIndexes",
          "type": "uint256[]"
        }
      ],
      "stateMutability": "view",
      "type": "function"
    },
    {
      "inputs": [],
      "name": "getTrustees",
      "outputs": [
        {
          "internalType": "address[]",
          "name": "",
          "type": "address[]"
        }
      ],
      "stateMutability": "view",
      "type": "function"
    },
    {
      "inputs": [
        {
          "internalType": "address",
          "name": "user",
          "type": "address"
        }
      ],
      "name": "getUnredeemedPoints",
      "outputs": [
        {
          "internalType": "uint256",
          "name": "",
          "type": "uint256"
        }
      ],
      "stateMutability": "view",
      "type": "function"
    },
    {
      "inputs": [
        {
          "internalType": "address",
          "name": "user",
          "type": "address"
        }
      ],
      "name": "getUserBadgeIds",
      "outputs": [
        {
          "internalType": "uint256[]",
          "name": "",
          "type": "uint256[]"
        }
      ],
      "stateMutability": "view",
      "type": "function"
    },
    {
      "inputs": [
        {
          "internalType": "address",
          "name": "user",
          "type": "address"
        }
      ],
      "name": "getUserCompletedContent",
      "outputs": [
        {
          "internalType": "bool[]",
          "name": "",
          "type": "bool[]"
        }
      ],
      "stateMutability": "view",
      "type": "function"
    },
    {
      "inputs": [
        {
          "internalType": "address",
          "name": "user",
          "type": "address"
        }
      ],
      "name": "getUserProfile",
      "outputs": [
        {
          "internalType": "uint256",
          "name": "userId",
          "type": "uint256"
        },
        {
          "internalType": "uint256",
          "name": "articlesRead",
          "type": "uint256"
        },
        {
          "internalType": "uint256",
          "name": "quizzesTaken",
          "type": "uint256"
        },
        {
          "internalType": "uint256",
          "name": "totalPointsEarned",
          "type": "uint256"
        },
        {
          "internalType": "uint256",
          "name": "totalPointsRedeemed",
          "type": "uint256"
        },
        {
          "internalType": "uint256",
          "name": "unredeemedPoints",
          "type": "uint256"
        },
        {
          "internalType": "uint256",
          "name": "badges",
          "type": "uint256"
        },
        {
          "internalType": "bool",
          "name": "goldenBadgeClaimed",
          "type": "bool"
        }
      ],
      "stateMutability": "view",
      "type": "function"
    },
    {
      "inputs": [
        {
          "internalType": "address",
          "name": "",
          "type": "address"
        },
        {
          "internalType": "uint256",
          "name": "",
          "type": "uint256"
        }
      ],
      "name": "hasCompleted",
      "outputs": [
        {
          "internalType": "bool",
          "name": "",
          "type": "bool"
        }
      ],
      "stateMutability": "view",
      "type": "function"
    },
    {
      "inputs": [
        {
          "internalType": "address",
          "name": "owner",
          "type": "address"
        },
        {
          "internalType": "address",
          "name": "operator",
          "type": "address"
        }
      ],
      "name": "isApprovedForAll",
      "outputs": [
        {
          "internalType": "bool",
          "name": "",
          "type": "bool"
        }
      ],
      "stateMutability": "view",
      "type": "function"
    },
    {
      "inputs": [
        {
          "internalType": "address",
          "name": "",
          "type": "address"
        }
      ],
      "name": "isTrustee",
      "outputs": [
        {
          "internalType": "bool",
          "name": "",
          "type": "bool"
        }
      ],
      "stateMutability": "view",
      "type": "function"
    },
    {
      "inputs": [
        {
          "internalType": "address",
          "name": "user",
          "type": "address"
        }
      ],
      "name": "isUserRegistered",
      "outputs": [
        {
          "internalType": "bool",
          "name": "",
          "type": "bool"
        }
      ],
      "stateMutability": "view",
      "type": "function"
    },
    {
      "inputs": [],
      "name": "name",
      "outputs": [
        {
          "internalType": "string",
          "name": "",
          "type": "string"
        }
      ],
      "stateMutability": "view",
      "type": "function"
    },
    {
      "inputs": [],
      "name": "nextBadgeId",
      "outputs": [
        {
          "internalType": "uint256",
          "name": "",
          "type": "uint256"
        }
      ],
      "stateMutability": "view",
      "type": "function"
    },
    {
      "inputs": [],
      "name": "nextContentId",
      "outputs": [
        {
          "internalType": "uint256",
          "name": "",
          "type": "uint256"
        }
      ],
      "stateMutability": "view",
      "type": "function"
    },
    {
      "inputs": [],
      "name": "nextUserId",
      "outputs": [
        {
          "internalType": "uint256",
          "name": "",
          "type": "uint256"
        }
      ],
      "stateMutability": "view",
      "type": "function"
    },
    {
      "inputs": [
        {
          "internalType": "uint256",
          "name": "tokenId",
          "type": "uint256"
        }
      ],
      "name": "ownerOf",
      "outputs": [
        {
          "internalType": "address",
          "name": "",
          "type": "address"
        }
      ],
      "stateMutability": "view",
      "type": "function"
    },
    {
      "inputs": [
        {
          "internalType": "address",
          "name": "",
          "type": "address"
        }
      ],
      "name": "profiles",
      "outputs": [
        {
          "internalType": "uint256",
          "name": "userId",
          "type": "uint256"
        },
        {
          "internalType": "uint256",
          "name": "articlesRead",
          "type": "uint256"
        },
        {
          "internalType": "uint256",
          "name": "quizzesTaken",
          "type": "uint256"
        },
        {
          "internalType": "uint256",
          "name": "totalPointsEarned",
          "type": "uint256"
        },
        {
          "internalType": "uint256",
          "name": "totalPointsRedeemed",
          "type": "uint256"
        },
        {
          "internalType": "uint256",
          "name": "badges",
          "type": "uint256"
        },
        {
          "internalType": "bool",
          "name": "goldenBadgeClaimed",
          "type": "bool"
        }
      ],
      "stateMutability": "view",
      "type": "function"
    },
    {
      "inputs": [
        {
          "internalType": "uint256",
          "name": "contentId",
          "type": "uint256"
        }
      ],
      "name": "readArticle",
      "outputs": [],
      "stateMutability": "nonpayable",
      "type": "function"
    },
    {
      "inputs": [
        {
          "internalType": "string",
          "name": "title",
          "type": "string"
        },
        {
          "internalType": "string",
          "name": "body",
          "type": "string"
        },
        {
          "internalType": "string[]",
          "name": "sources",
          "type": "string[]"
        },
        {
          "internalType": "uint256",
          "name": "pointReward",
          "type": "uint256"
        }
      ],
      "name": "registerContent",
      "outputs": [],
      "stateMutability": "nonpayable",
      "type": "function"
    },
    {
      "inputs": [],
      "name": "registerUser",
      "outputs": [],
      "stateMutability": "nonpayable",
      "type": "function"
    },
    {
      "inputs": [
        {
          "internalType": "address",
          "name": "from",
          "type": "address"
        },
        {
          "internalType": "address",
          "name": "to",
          "type": "address"
        },
        {
          "internalType": "uint256",
          "name": "tokenId",
          "type": "uint256"
        }
      ],
      "name": "safeTransferFrom",
      "outputs": [],
      "stateMutability": "nonpayable",
      "type": "function"
    },
    {
      "inputs": [
        {
          "internalType": "address",
          "name": "from",
          "type": "address"
        },
        {
          "internalType": "address",
          "name": "to",
          "type": "address"
        },
        {
          "internalType": "uint256",
          "name": "tokenId",
          "type": "uint256"
        },
        {
          "internalType": "bytes",
          "name": "data",
          "type": "bytes"
        }
      ],
      "name": "safeTransferFrom",
      "outputs": [],
      "stateMutability": "nonpayable",
      "type": "function"
    },
    {
      "inputs": [
        {
          "internalType": "address",
          "name": "operator",
          "type": "address"
        },
        {
          "internalType": "bool",
          "name": "approved",
          "type": "bool"
        }
      ],
      "name": "setApprovalForAll",
      "outputs": [],
      "stateMutability": "nonpayable",
      "type": "function"
    },
    {
      "inputs": [
        {
          "internalType": "bytes4",
          "name": "interfaceId",
          "type": "bytes4"
        }
      ],
      "name": "supportsInterface",
      "outputs": [
        {
          "internalType": "bool",
          "name": "",
          "type": "bool"
        }
      ],
      "stateMutability": "view",
      "type": "function"
    },
    {
      "inputs": [],
      "name": "symbol",
      "outputs": [
        {
          "internalType": "string",
          "name": "",
          "type": "string"
        }
      ],
      "stateMutability": "view",
      "type": "function"
    },
    {
      "inputs": [
        {
          "internalType": "uint256",
          "name": "contentId",
          "type": "uint256"
        }
      ],
      "name": "takeQuiz",
      "outputs": [],
      "stateMutability": "nonpayable",
      "type": "function"
    },
    {
      "inputs": [
        {
          "internalType": "uint256",
          "name": "index",
          "type": "uint256"
        }
      ],
      "name": "tokenByIndex",
      "outputs": [
        {
          "internalType": "uint256",
          "name": "",
          "type": "uint256"
        }
      ],
      "stateMutability": "view",
      "type": "function"
    },
    {
      "inputs": [
        {
          "internalType": "address",
          "name": "owner",
          "type": "address"
        },
        {
          "internalType": "uint256",
          "name": "index",
          "type": "uint256"
        }
      ],
      "name": "tokenOfOwnerByIndex",
      "outputs": [
        {
          "internalType": "uint256",
          "name": "",
          "type": "uint256"
        }
      ],
      "stateMutability": "view",
      "type": "function"
    },
    {
      "inputs": [
        {
          "internalType": "uint256",
          "name": "tokenId",
          "type": "uint256"
        }
      ],
      "name": "tokenURI",
      "outputs": [
        {
          "internalType": "string",
          "name": "",
          "type": "string"
        }
      ],
      "stateMutability": "view",
      "type": "function"
    },
    {
      "inputs": [],
      "name": "totalSupply",
      "outputs": [
        {
          "internalType": "uint256",
          "name": "",
          "type": "uint256"
        }
      ],
      "stateMutability": "view",
      "type": "function"
    },
    {
      "inputs": [
        {
          "internalType": "address",
          "name": "from",
          "type": "address"
        },
        {
          "internalType": "address",
          "name": "to",
          "type": "address"
        },
        {
          "internalType": "uint256",
          "name": "tokenId",
          "type": "uint256"
        }
      ],
      "name": "transferFrom",
      "outputs": [],
      "stateMutability": "nonpayable",
      "type": "function"
    },
    {
      "inputs": [
        {
          "internalType": "uint256",
          "name": "",
          "type": "uint256"
        }
      ],
      "name": "trustees",
      "outputs": [
        {
          "internalType": "address",
          "name": "",
          "type": "address"
        }
      ],
      "stateMutability": "view",
      "type": "function"
    },
    {
      "stateMutability": "payable",
      "type": "receive"
    }
  ],
  "bytecode": "0x608060405234801561001057600080fd5b50604051616095380380616095833981810160405281019061003291906104de565b6040518060400160405280600c81526020017f45647554656368426164676500000000000000000000000000000000000000008152506040518060400160405280600381526020017f455442000000000000000000000000000000000000000000000000000000000081525081600090816100ad9190610748565b5080600190816100bd9190610748565b5050506000815111610104576040517f08c379a00000000000000000000000000000000000000000000000000000000081526004016100fb90610877565b60405180910390fd5b60005b81518110156102f457600082828151811061012557610124610897565b5b60200260200101519050600073ffffffffffffffffffffffffffffffffffffffff168173ffffffffffffffffffffffffffffffffffffffff160361019e576040517f08c379a000000000000000000000000000000000000000000000000000000000815260040161019590610912565b60405180910390fd5b600e60008273ffffffffffffffffffffffffffffffffffffffff1673ffffffffffffffffffffffffffffffffffffffff16815260200190815260200160002060009054906101000a900460ff161561022b576040517f08c379a00000000000000000000000000000000000000000000000000000000081526004016102229061097e565b60405180910390fd5b6001600e60008373ffffffffffffffffffffffffffffffffffffffff1673ffffffffffffffffffffffffffffffffffffffff16815260200190815260200160002060006101000a81548160ff021916908315150217905550600d819080600181540180825580915050600190039060005260206000200160009091909190916101000a81548173ffffffffffffffffffffffffffffffffffffffff021916908373ffffffffffffffffffffffffffffffffffffffff160217905550508080600101915050610107565b506001600a819055506001600b819055506001600c819055505061099e565b6000604051905090565b600080fd5b600080fd5b600080fd5b6000601f19601f8301169050919050565b7f4e487b7100000000000000000000000000000000000000000000000000000000600052604160045260246000fd5b6103758261032c565b810181811067ffffffffffffffff821117156103945761039361033d565b5b80604052505050565b60006103a7610313565b90506103b3828261036c565b919050565b600067ffffffffffffffff8211156103d3576103d261033d565b5b602082029050602081019050919050565b600080fd5b600073ffffffffffffffffffffffffffffffffffffffff82169050919050565b6000610414826103e9565b9050919050565b61042481610409565b811461042f57600080fd5b50565b6000815190506104418161041b565b92915050565b600061045a610455846103b8565b61039d565b9050808382526020820190506020840283018581111561047d5761047c6103e4565b5b835b818110156104a657806104928882610432565b84526020840193505060208101905061047f565b5050509392505050565b600082601f8301126104c5576104c4610327565b5b81516104d5848260208601610447565b91505092915050565b6000602082840312156104f4576104f361031d565b5b600082015167ffffffffffffffff81111561051257610511610322565b5b61051e848285016104b0565b91505092915050565b600081519050919050565b7f4e487b7100000000000000000000000000000000000000000000000000000000600052602260045260246000fd5b6000600282049050600182168061057957607f821691505b60208210810361058c5761058b610532565b5b50919050565b60008190508160005260206000209050919050565b60006020601f8301049050919050565b600082821b905092915050565b6000600883026105f47fffffffffffffffffffffffffffffffffffffffffffffffffffffffffffffffff826105b7565b6105fe86836105b7565b95508019841693508086168417925050509392505050565b6000819050919050565b6000819050919050565b600061064561064061063b84610616565b610620565b610616565b9050919050565b6000819050919050565b61065f8361062a565b61067361066b8261064c565b8484546105c4565b825550505050565b600090565b61068861067b565b610693818484610656565b505050565b5b818110156106b7576106ac600082610680565b600181019050610699565b5050565b601f8211156106fc576106cd81610592565b6106d6846105a7565b810160208510156106e5578190505b6106f96106f1856105a7565b830182610698565b50505b505050565b600082821c905092915050565b600061071f60001984600802610701565b1980831691505092915050565b6000610738838361070e565b9150826002028217905092915050565b61075182610527565b67ffffffffffffffff81111561076a5761076961033d565b5b6107748254610561565b61077f8282856106bb565b600060209050601f8311600181146107b257600084156107a0578287015190505b6107aa858261072c565b865550610812565b601f1984166107c086610592565b60005b828110156107e8578489015182556001820191506020850194506020810190506107c3565b868310156108055784890151610801601f89168261070e565b8355505b6001600288020188555050505b505050505050565b600082825260208201905092915050565b7f4174206c65617374206f6e652074727573746565207265717569726564000000600082015250565b6000610861601d8361081a565b915061086c8261082b565b602082019050919050565b6000602082019050818103600083015261089081610854565b9050919050565b7f4e487b7100000000000000000000000000000000000000000000000000000000600052603260045260246000fd5b7f496e76616c696420747275737465650000000000000000000000000000000000600082015250565b60006108fc600f8361081a565b9150610907826108c6565b602082019050919050565b6000602082019050818103600083015261092b816108ef565b9050919050565b7f4475706c69636174652074727573746565000000000000000000000000000000600082015250565b600061096860118361081a565b915061097382610932565b602082019050919050565b600060208201905081810360008301526109978161095b565b9050919050565b6156e8806109ad6000396000f3fe6080604052600436106102345760003560e01c806370a082311161012e578063beffaf09116100ab578063d4325a031161006f578063d4325a0314610905578063d65bd9fc14610942578063d7aaf6481461096b578063e985e9c5146109aa578063fd4f2d3c146109e75761023b565b8063beffaf09146107f8578063c130efd014610823578063c784cd171461084e578063c78f6bcf1461088b578063c87b56dd146108c85761023b565b8063a22cb465116100f2578063a22cb465146106f8578063af0ddfc814610721578063b5ecf9121461074c578063b88d4fde1461078c578063bbe15627146107b55761023b565b806370a08231146105e4578063717d63a41461062157806395d89b411461065e578063987ee15614610689578063a1e6a255146106cd5761023b565b806323b872dd116101bc57806342adc6f11161018057806342adc6f1146104ed5780634d3820eb1461052a5780634f6ccce7146105415780635f2b4ad31461057e5780636352211e146105a75761023b565b806323b872dd1461040a5780632e246786146104335780632f745c591461047057806334e7697e146104ad57806342842e0e146104c45761023b565b8063095ea7b311610203578063095ea7b31461030e5780630a248d7f146103375780630b7ad54c14610362578063163f7522146103a257806318160ddd146103df5761023b565b806301ffc9a71461024057806306bc6c601461027d57806306fdde03146102a6578063081812fc146102d15761023b565b3661023b57005b600080fd5b34801561024c57600080fd5b5061026760048036038101906102629190613d0e565b610a10565b6040516102749190613d56565b60405180910390f35b34801561028957600080fd5b506102a4600480360381019061029f9190613fd3565b610a8a565b005b3480156102b257600080fd5b506102bb610c5b565b6040516102c891906140f1565b60405180910390f35b3480156102dd57600080fd5b506102f860048036038101906102f39190614113565b610ced565b6040516103059190614181565b60405180910390f35b34801561031a57600080fd5b50610335600480360381019061033091906141c8565b610d09565b005b34801561034357600080fd5b5061034c610d1f565b6040516103599190614217565b60405180910390f35b34801561036e57600080fd5b5061038960048036038101906103849190614113565b610d25565b604051610399949392919061433e565b60405180910390f35b3480156103ae57600080fd5b506103c960048036038101906103c49190614398565b610f9f565b6040516103d69190613d56565b60405180910390f35b3480156103eb57600080fd5b506103f4610fee565b6040516104019190614217565b60405180910390f35b34801561041657600080fd5b50610431600480360381019061042c91906143c5565b610ffb565b005b34801561043f57600080fd5b5061045a600480360381019061045591906141c8565b6110fd565b6040516104679190613d56565b60405180910390f35b34801561047c57600080fd5b50610497600480360381019061049291906141c8565b61112c565b6040516104a49190614217565b60405180910390f35b3480156104b957600080fd5b506104c26111d5565b005b3480156104d057600080fd5b506104eb60048036038101906104e691906143c5565b61146e565b005b3480156104f957600080fd5b50610514600480360381019061050f9190614398565b61148e565b6040516105219190614217565b60405180910390f35b34801561053657600080fd5b5061053f6114ee565b005b34801561054d57600080fd5b5061056860048036038101906105639190614113565b611626565b6040516105759190614217565b60405180910390f35b34801561058a57600080fd5b506105a560048036038101906105a09190614113565b61169c565b005b3480156105b357600080fd5b506105ce60048036038101906105c99190614113565b611829565b6040516105db9190614181565b60405180910390f35b3480156105f057600080fd5b5061060b60048036038101906106069190614398565b61183b565b6040516106189190614217565b60405180910390f35b34801561062d57600080fd5b5061064860048036038101906106439190614113565b6118f5565b6040516106559190614181565b60405180910390f35b34801561066a57600080fd5b50610673611934565b60405161068091906140f1565b60405180910390f35b34801561069557600080fd5b506106b060048036038101906106ab9190614398565b6119c6565b6040516106c4989796959493929190614418565b60405180910390f35b3480156106d957600080fd5b506106e2611abc565b6040516106ef9190614217565b60405180910390f35b34801561070457600080fd5b5061071f600480360381019061071a91906144c2565b611ac2565b005b34801561072d57600080fd5b50610736611ad8565b6040516107439190614217565b60405180910390f35b34801561075857600080fd5b50610773600480360381019061076e9190614113565b611ade565b6040516107839493929190614502565b60405180910390f35b34801561079857600080fd5b506107b360048036038101906107ae91906145f6565b611c2b565b005b3480156107c157600080fd5b506107dc60048036038101906107d79190614398565b611c50565b6040516107ef9796959493929190614679565b60405180910390f35b34801561080457600080fd5b5061080d611c9f565b60405161081a91906147a6565b60405180910390f35b34801561082f57600080fd5b50610838611d2d565b6040516108459190614886565b60405180910390f35b34801561085a57600080fd5b5061087560048036038101906108709190614398565b611ddc565b6040516108829190613d56565b60405180910390f35b34801561089757600080fd5b506108b260048036038101906108ad9190614398565b611dfc565b6040516108bf9190614886565b60405180910390f35b3480156108d457600080fd5b506108ef60048036038101906108ea9190614113565b611ea4565b6040516108fc91906140f1565b60405180910390f35b34801561091157600080fd5b5061092c60048036038101906109279190614398565b611f0d565b6040516109399190614966565b60405180910390f35b34801561094e57600080fd5b5061096960048036038101906109649190614113565b61202a565b005b34801561097757600080fd5b50610992600480360381019061098d9190614113565b61230d565b6040516109a193929190614ad0565b60405180910390f35b3480156109b657600080fd5b506109d160048036038101906109cc9190614b1c565b61267d565b6040516109de9190613d56565b60405180910390f35b3480156109f357600080fd5b50610a0e6004803603810190610a099190614b5c565b612711565b005b60007f780e9d63000000000000000000000000000000000000000000000000000000007bffffffffffffffffffffffffffffffffffffffffffffffffffffffff1916827bffffffffffffffffffffffffffffffffffffffffffffffffffffffff19161480610a835750610a828261286b565b5b9050919050565b600e60003373ffffffffffffffffffffffffffffffffffffffff1673ffffffffffffffffffffffffffffffffffffffff16815260200190815260200160002060009054906101000a900460ff16610b16576040517f08c379a0000000000000000000000000000000000000000000000000000000008152600401610b0d90614c63565b60405180910390fd5b600f600085815260200190815260200160002060050160009054906101000a900460ff16610b79576040517f08c379a0000000000000000000000000000000000000000000000000000000008152600401610b7090614ccf565b60405180910390fd5b81518110610bbc576040517f08c379a0000000000000000000000000000000000000000000000000000000008152600401610bb390614d3b565b60405180910390fd5b600f600085815260200190815260200160002060030160405180606001604052808581526020018481526020018381525090806001815401808255809150506001900390600052602060002090600302016000909190919091506000820151816000019081610c2b9190614f67565b506020820151816001019080519060200190610c48929190613bc8565b5060408201518160020155505050505050565b606060008054610c6a90614d8a565b80601f0160208091040260200160405190810160405280929190818152602001828054610c9690614d8a565b8015610ce35780601f10610cb857610100808354040283529160200191610ce3565b820191906000526020600020905b815481529060010190602001808311610cc657829003601f168201915b5050505050905090565b6000610cf88261294d565b50610d02826129d5565b9050919050565b610d1b8282610d16612a12565b612a1a565b5050565b600a5481565b6060806060600080600f600087815260200190815260200160002090508060050160009054906101000a900460ff16610d93576040517f08c379a0000000000000000000000000000000000000000000000000000000008152600401610d8a90614ccf565b60405180910390fd5b8060000181600101826002018360040154838054610db090614d8a565b80601f0160208091040260200160405190810160405280929190818152602001828054610ddc90614d8a565b8015610e295780601f10610dfe57610100808354040283529160200191610e29565b820191906000526020600020905b815481529060010190602001808311610e0c57829003601f168201915b50505050509350828054610e3c90614d8a565b80601f0160208091040260200160405190810160405280929190818152602001828054610e6890614d8a565b8015610eb55780601f10610e8a57610100808354040283529160200191610eb5565b820191906000526020600020905b815481529060010190602001808311610e9857829003601f168201915b5050505050925081805480602002602001604051908101604052809291908181526020016000905b82821015610f89578382906000526020600020018054610efc90614d8a565b80601f0160208091040260200160405190810160405280929190818152602001828054610f2890614d8a565b8015610f755780601f10610f4a57610100808354040283529160200191610f75565b820191906000526020600020905b815481529060010190602001808311610f5857829003601f168201915b505050505081526020019060010190610edd565b5050505091509450945094509450509193509193565b600080601060008473ffffffffffffffffffffffffffffffffffffffff1673ffffffffffffffffffffffffffffffffffffffff1681526020019081526020016000206000015414159050919050565b6000600880549050905090565b600073ffffffffffffffffffffffffffffffffffffffff168273ffffffffffffffffffffffffffffffffffffffff160361106d5760006040517f64a0ae920000000000000000000000000000000000000000000000000000000081526004016110649190614181565b60405180910390fd5b6000611081838361107c612a12565b612a2c565b90508373ffffffffffffffffffffffffffffffffffffffff168173ffffffffffffffffffffffffffffffffffffffff16146110f7578382826040517f64283d7b0000000000000000000000000000000000000000000000000000000081526004016110ee93929190615039565b60405180910390fd5b50505050565b60116020528160005260406000206020528060005260406000206000915091509054906101000a900460ff1681565b60006111378361183b565b821061117c5782826040517fa57d13dc000000000000000000000000000000000000000000000000000000008152600401611173929190615070565b60405180910390fd5b600660008473ffffffffffffffffffffffffffffffffffffffff1673ffffffffffffffffffffffffffffffffffffffff168152602001908152602001600020600083815260200190815260200160002054905092915050565b6000601060003373ffffffffffffffffffffffffffffffffffffffff1673ffffffffffffffffffffffffffffffffffffffff168152602001908152602001600020600001540361125a576040517f08c379a0000000000000000000000000000000000000000000000000000000008152600401611251906150e5565b60405180910390fd5b6000601060003373ffffffffffffffffffffffffffffffffffffffff1673ffffffffffffffffffffffffffffffffffffffff16815260200190815260200160002090506000816004015482600301546112b39190615134565b9050600081116112f8576040517f08c379a00000000000000000000000000000000000000000000000000000000081526004016112ef906151b4565b60405180910390fd5b600067016345785d8a00008261130e91906151d4565b905080471015611353576040517f08c379a000000000000000000000000000000000000000000000000000000000815260040161134a90615262565b60405180910390fd5b818360040160008282546113679190615282565b9250508190555060003373ffffffffffffffffffffffffffffffffffffffff1682604051611394906152e7565b60006040518083038185875af1925050503d80600081146113d1576040519150601f19603f3d011682016040523d82523d6000602084013e6113d6565b606091505b505090508061141a576040517f08c379a000000000000000000000000000000000000000000000000000000000815260040161141190615348565b60405180910390fd5b3373ffffffffffffffffffffffffffffffffffffffff167fbf2d899bf3f0b048d323f97b8b5718c4b17368871db27ac067d00bbff24d707d836040516114609190614217565b60405180910390a250505050565b61148983838360405180602001604052806000815250611c2b565b505050565b600080601060008473ffffffffffffffffffffffffffffffffffffffff1673ffffffffffffffffffffffffffffffffffffffff1681526020019081526020016000209050806004015481600301546114e69190615134565b915050919050565b6000601060003373ffffffffffffffffffffffffffffffffffffffff1673ffffffffffffffffffffffffffffffffffffffff1681526020019081526020016000206000015414611573576040517f08c379a000000000000000000000000000000000000000000000000000000000815260040161156a906153b4565b60405180910390fd5b600b54601060003373ffffffffffffffffffffffffffffffffffffffff1673ffffffffffffffffffffffffffffffffffffffff168152602001908152602001600020600001819055503373ffffffffffffffffffffffffffffffffffffffff167fe29d35093005f4d575e1003753426b57a7f64378ba73332eef9c6ccc2b8decd6600b546040516116049190614217565b60405180910390a2600b600081548092919061161f906153d4565b9190505550565b6000611630610fee565b8210611676576000826040517fa57d13dc00000000000000000000000000000000000000000000000000000000815260040161166d929190615070565b60405180910390fd5b6008828154811061168a5761168961541c565b5b90600052602060002001549050919050565b6000601060003373ffffffffffffffffffffffffffffffffffffffff1673ffffffffffffffffffffffffffffffffffffffff1681526020019081526020016000206000015403611721576040517f08c379a0000000000000000000000000000000000000000000000000000000008152600401611718906150e5565b60405180910390fd5b600f600082815260200190815260200160002060050160009054906101000a900460ff16611784576040517f08c379a000000000000000000000000000000000000000000000000000000000815260040161177b90614ccf565b60405180910390fd5b6000601060003373ffffffffffffffffffffffffffffffffffffffff1673ffffffffffffffffffffffffffffffffffffffff16815260200190815260200160002090508060010160008154809291906117dc906153d4565b9190505550813373ffffffffffffffffffffffffffffffffffffffff167f82d6103ca702d0d8c96409fe40749ce755707937decfbb5fa40c9de89108841860405160405180910390a35050565b60006118348261294d565b9050919050565b60008073ffffffffffffffffffffffffffffffffffffffff168273ffffffffffffffffffffffffffffffffffffffff16036118ae5760006040517f89c62b640000000000000000000000000000000000000000000000000000000081526004016118a59190614181565b60405180910390fd5b600360008373ffffffffffffffffffffffffffffffffffffffff1673ffffffffffffffffffffffffffffffffffffffff168152602001908152602001600020549050919050565b600d818154811061190557600080fd5b906000526020600020016000915054906101000a900473ffffffffffffffffffffffffffffffffffffffff1681565b60606001805461194390614d8a565b80601f016020809104026020016040519081016040528092919081815260200182805461196f90614d8a565b80156119bc5780601f10611991576101008083540402835291602001916119bc565b820191906000526020600020905b81548152906001019060200180831161199f57829003601f168201915b5050505050905090565b6000806000806000806000806000601060008b73ffffffffffffffffffffffffffffffffffffffff1673ffffffffffffffffffffffffffffffffffffffff16815260200190815260200160002090506000816000015403611a5c576040517f08c379a0000000000000000000000000000000000000000000000000000000008152600401611a53906150e5565b60405180910390fd5b8060000154816001015482600201548360030154846004015485600401548660030154611a899190615134565b86600501548760060160009054906101000a900460ff169850985098509850985098509850985050919395975091939597565b600b5481565b611ad4611acd612a12565b8383612b49565b5050565b600c5481565b600f602052806000526040600020600091509050806000018054611b0190614d8a565b80601f0160208091040260200160405190810160405280929190818152602001828054611b2d90614d8a565b8015611b7a5780601f10611b4f57610100808354040283529160200191611b7a565b820191906000526020600020905b815481529060010190602001808311611b5d57829003601f168201915b505050505090806001018054611b8f90614d8a565b80601f0160208091040260200160405190810160405280929190818152602001828054611bbb90614d8a565b8015611c085780601f10611bdd57610100808354040283529160200191611c08565b820191906000526020600020905b815481529060010190602001808311611beb57829003601f168201915b5050505050908060040154908060050160009054906101000a900460ff16905084565b611c36848484610ffb565b611c4a611c41612a12565b85858585612cb8565b50505050565b60106020528060005260406000206000915090508060000154908060010154908060020154908060030154908060040154908060050154908060060160009054906101000a900460ff16905087565b6060600d805480602002602001604051908101604052809291908181526020018280548015611d2357602002820191906000526020600020905b8160009054906101000a900473ffffffffffffffffffffffffffffffffffffffff1673ffffffffffffffffffffffffffffffffffffffff1681526020019060010190808311611cd9575b5050505050905090565b606060006001600a54611d409190615134565b67ffffffffffffffff811115611d5957611d58613dc2565b5b604051908082528060200260200182016040528015611d875781602001602082028036833780820191505090505b5090506000600190505b600a54811015611dd4578082600183611daa9190615134565b81518110611dbb57611dba61541c565b5b6020026020010181815250508080600101915050611d91565b508091505090565b600e6020528060005260406000206000915054906101000a900460ff1681565b60606000611e098361183b565b905060008167ffffffffffffffff811115611e2757611e26613dc2565b5b604051908082528060200260200182016040528015611e555781602001602082028036833780820191505090505b50905060005b82811015611e9957611e6d858261112c565b828281518110611e8057611e7f61541c565b5b6020026020010181815250508080600101915050611e5b565b508092505050919050565b6060611eaf8261294d565b506000611eba612e69565b90506000815111611eda5760405180602001604052806000815250611f05565b80611ee484612e80565b604051602001611ef5929190615487565b6040516020818303038152906040525b915050919050565b606060006001600a54611f209190615134565b905060008167ffffffffffffffff811115611f3e57611f3d613dc2565b5b604051908082528060200260200182016040528015611f6c5781602001602082028036833780820191505090505b5090506000600190505b82811161201f57601160008673ffffffffffffffffffffffffffffffffffffffff1673ffffffffffffffffffffffffffffffffffffffff168152602001908152602001600020600082815260200190815260200160002060009054906101000a900460ff1682600183611fe99190615134565b81518110611ffa57611ff961541c565b5b6020026020010190151590811515815250508080612017906153d4565b915050611f76565b508092505050919050565b6000601060003373ffffffffffffffffffffffffffffffffffffffff1673ffffffffffffffffffffffffffffffffffffffff16815260200190815260200160002060000154036120af576040517f08c379a00000000000000000000000000000000000000000000000000000000081526004016120a6906150e5565b60405180910390fd5b600f600082815260200190815260200160002060050160009054906101000a900460ff16612112576040517f08c379a000000000000000000000000000000000000000000000000000000000815260040161210990614ccf565b60405180910390fd5b601160003373ffffffffffffffffffffffffffffffffffffffff1673ffffffffffffffffffffffffffffffffffffffff168152602001908152602001600020600082815260200190815260200160002060009054906101000a900460ff16156121b0576040517f08c379a00000000000000000000000000000000000000000000000000000000081526004016121a7906154f7565b60405180910390fd5b6000601060003373ffffffffffffffffffffffffffffffffffffffff1673ffffffffffffffffffffffffffffffffffffffff16815260200190815260200160002090506000600f6000848152602001908152602001600020905081600201600081548092919061221f906153d4565b9190505550806004015482600301600082825461223c9190615282565b925050819055506001601160003373ffffffffffffffffffffffffffffffffffffffff1673ffffffffffffffffffffffffffffffffffffffff168152602001908152602001600020600085815260200190815260200160002060006101000a81548160ff021916908315150217905550823373ffffffffffffffffffffffffffffffffffffffff167f6ed0d2f7523beeef2d0bc53ae25a8891202fcda22bf8a4cb4771de460efc65fd83600401546040516122f79190614217565b60405180910390a361230833612f4e565b505050565b60608060606000600f600086815260200190815260200160002090508060050160009054906101000a900460ff1661237a576040517f08c379a000000000000000000000000000000000000000000000000000000000815260040161237190614ccf565b60405180910390fd5b6000816003018054905090508067ffffffffffffffff8111156123a05761239f613dc2565b5b6040519080825280602002602001820160405280156123d357816020015b60608152602001906001900390816123be5790505b5094508067ffffffffffffffff8111156123f0576123ef613dc2565b5b60405190808252806020026020018201604052801561242357816020015b606081526020019060019003908161240e5790505b5093508067ffffffffffffffff8111156124405761243f613dc2565b5b60405190808252806020026020018201604052801561246e5781602001602082028036833780820191505090505b50925060005b818110156126735760008360030182815481106124945761249361541c565b5b906000526020600020906003020190508060000180546124b390614d8a565b80601f01602080910402602001604051908101604052809291908181526020018280546124df90614d8a565b801561252c5780601f106125015761010080835404028352916020019161252c565b820191906000526020600020905b81548152906001019060200180831161250f57829003601f168201915b50505050508783815181106125445761254361541c565b5b602002602001018190525080600101805480602002602001604051908101604052809291908181526020016000905b8282101561261f57838290600052602060002001805461259290614d8a565b80601f01602080910402602001604051908101604052809291908181526020018280546125be90614d8a565b801561260b5780601f106125e05761010080835404028352916020019161260b565b820191906000526020600020905b8154815290600101906020018083116125ee57829003601f168201915b505050505081526020019060010190612573565b505050508683815181106126365761263561541c565b5b602002602001018190525080600201548583815181106126595761265861541c565b5b602002602001018181525050508080600101915050612474565b5050509193909250565b6000600560008473ffffffffffffffffffffffffffffffffffffffff1673ffffffffffffffffffffffffffffffffffffffff16815260200190815260200160002060008373ffffffffffffffffffffffffffffffffffffffff1673ffffffffffffffffffffffffffffffffffffffff16815260200190815260200160002060009054906101000a900460ff16905092915050565b600e60003373ffffffffffffffffffffffffffffffffffffffff1673ffffffffffffffffffffffffffffffffffffffff16815260200190815260200160002060009054906101000a900460ff1661279d576040517f08c379a000000000000000000000000000000000000000000000000000000000815260040161279490614c63565b60405180910390fd5b6000600a5490506000600f60008381526020019081526020016000209050858160000190816127cc9190614f67565b50848160010190816127de9190614f67565b50838160020190805190602001906127f7929190613bc8565b5082816004018190555060018160050160006101000a81548160ff021916908315150217905550817f48b2db219e455c37aa49fa27ddf3d239abe9fbce6ecd5044eae6aa954f11376060405160405180910390a2600a600081548092919061285e906153d4565b9190505550505050505050565b60007f80ac58cd000000000000000000000000000000000000000000000000000000007bffffffffffffffffffffffffffffffffffffffffffffffffffffffff1916827bffffffffffffffffffffffffffffffffffffffffffffffffffffffff1916148061293657507f5b5e139f000000000000000000000000000000000000000000000000000000007bffffffffffffffffffffffffffffffffffffffffffffffffffffffff1916827bffffffffffffffffffffffffffffffffffffffffffffffffffffffff1916145b8061294657506129458261309f565b5b9050919050565b60008061295983613109565b9050600073ffffffffffffffffffffffffffffffffffffffff168173ffffffffffffffffffffffffffffffffffffffff16036129cc57826040517f7e2732890000000000000000000000000000000000000000000000000000000081526004016129c39190614217565b60405180910390fd5b80915050919050565b60006004600083815260200190815260200160002060009054906101000a900473ffffffffffffffffffffffffffffffffffffffff169050919050565b600033905090565b612a278383836001613146565b505050565b600080612a3a85858561330b565b9050600073ffffffffffffffffffffffffffffffffffffffff168173ffffffffffffffffffffffffffffffffffffffff1603612a7e57612a7984613525565b612abd565b8473ffffffffffffffffffffffffffffffffffffffff168173ffffffffffffffffffffffffffffffffffffffff1614612abc57612abb818561356e565b5b5b600073ffffffffffffffffffffffffffffffffffffffff168573ffffffffffffffffffffffffffffffffffffffff1603612aff57612afa84613659565b612b3e565b8473ffffffffffffffffffffffffffffffffffffffff168173ffffffffffffffffffffffffffffffffffffffff1614612b3d57612b3c858561372a565b5b5b809150509392505050565b600073ffffffffffffffffffffffffffffffffffffffff168273ffffffffffffffffffffffffffffffffffffffff1603612bba57816040517f5b08ba18000000000000000000000000000000000000000000000000000000008152600401612bb19190614181565b60405180910390fd5b80600560008573ffffffffffffffffffffffffffffffffffffffff1673ffffffffffffffffffffffffffffffffffffffff16815260200190815260200160002060008473ffffffffffffffffffffffffffffffffffffffff1673ffffffffffffffffffffffffffffffffffffffff16815260200190815260200160002060006101000a81548160ff0219169083151502179055508173ffffffffffffffffffffffffffffffffffffffff168373ffffffffffffffffffffffffffffffffffffffff167f17307eab39ab6107e8899845ad3d59bd9653f200f220920489ca2b5937696c3183604051612cab9190613d56565b60405180910390a3505050565b60008373ffffffffffffffffffffffffffffffffffffffff163b1115612e62578273ffffffffffffffffffffffffffffffffffffffff1663150b7a02868685856040518563ffffffff1660e01b8152600401612d17949392919061556c565b6020604051808303816000875af1925050508015612d5357506040513d601f19601f82011682018060405250810190612d5091906155cd565b60015b612dd7573d8060008114612d83576040519150601f19603f3d011682016040523d82523d6000602084013e612d88565b606091505b506000815103612dcf57836040517f64a0ae92000000000000000000000000000000000000000000000000000000008152600401612dc69190614181565b60405180910390fd5b805160208201fd5b63150b7a0260e01b7bffffffffffffffffffffffffffffffffffffffffffffffffffffffff1916817bffffffffffffffffffffffffffffffffffffffffffffffffffffffff191614612e6057836040517f64a0ae92000000000000000000000000000000000000000000000000000000008152600401612e579190614181565b60405180910390fd5b505b5050505050565b606060405180602001604052806000815250905090565b606060006001612e8f846137b5565b01905060008167ffffffffffffffff811115612eae57612ead613dc2565b5b6040519080825280601f01601f191660200182016040528015612ee05781602001600182028036833780820191505090505b509050600082602083010190505b600115612f43578080600190039150507f3031323334353637383961626364656600000000000000000000000000000000600a86061a8153600a8581612f3757612f366155fa565b5b04945060008503612eee575b819350505050919050565b6000601060008373ffffffffffffffffffffffffffffffffffffffff1673ffffffffffffffffffffffffffffffffffffffff168152602001908152602001600020905060006101f48260030154612fa59190615629565b90505b808260050154101561309a576000826005016000815480929190612fcb906153d4565b919050555060058360050154148015612ff357508260060160009054906101000a900460ff16155b1561301a576001905060018360060160006101000a81548160ff0219169083151502179055505b6000600c549050600c6000815480929190613034906153d4565b91905055506130438582613908565b8473ffffffffffffffffffffffffffffffffffffffff167f3d9976d782904e93fbbd135c5aa2da18ae4b1cb909dbe63fbc8eae916cde190a828460405161308b92919061565a565b60405180910390a25050612fa8565b505050565b60007f01ffc9a7000000000000000000000000000000000000000000000000000000007bffffffffffffffffffffffffffffffffffffffffffffffffffffffff1916827bffffffffffffffffffffffffffffffffffffffffffffffffffffffff1916149050919050565b60006002600083815260200190815260200160002060009054906101000a900473ffffffffffffffffffffffffffffffffffffffff169050919050565b808061317f5750600073ffffffffffffffffffffffffffffffffffffffff168273ffffffffffffffffffffffffffffffffffffffff1614155b156132b357600061318f8461294d565b9050600073ffffffffffffffffffffffffffffffffffffffff168373ffffffffffffffffffffffffffffffffffffffff16141580156131fa57508273ffffffffffffffffffffffffffffffffffffffff168173ffffffffffffffffffffffffffffffffffffffff1614155b801561320d575061320b818461267d565b155b1561324f57826040517fa9fbf51f0000000000000000000000000000000000000000000000000000000081526004016132469190614181565b60405180910390fd5b81156132b157838573ffffffffffffffffffffffffffffffffffffffff168273ffffffffffffffffffffffffffffffffffffffff167f8c5be1e5ebec7d5bd14f71427d1e84f3dd0314c0f7b2291e5b200ac8c7c3b92560405160405180910390a45b505b836004600085815260200190815260200160002060006101000a81548173ffffffffffffffffffffffffffffffffffffffff021916908373ffffffffffffffffffffffffffffffffffffffff16021790555050505050565b60008061331784613109565b9050600073ffffffffffffffffffffffffffffffffffffffff168373ffffffffffffffffffffffffffffffffffffffff161461335957613358818486613926565b5b600073ffffffffffffffffffffffffffffffffffffffff168173ffffffffffffffffffffffffffffffffffffffff16146133ea5761339b600085600080613146565b6001600360008373ffffffffffffffffffffffffffffffffffffffff1673ffffffffffffffffffffffffffffffffffffffff168152602001908152602001600020600082825403925050819055505b600073ffffffffffffffffffffffffffffffffffffffff168573ffffffffffffffffffffffffffffffffffffffff161461346d576001600360008773ffffffffffffffffffffffffffffffffffffffff1673ffffffffffffffffffffffffffffffffffffffff168152602001908152602001600020600082825401925050819055505b846002600086815260200190815260200160002060006101000a81548173ffffffffffffffffffffffffffffffffffffffff021916908373ffffffffffffffffffffffffffffffffffffffff160217905550838573ffffffffffffffffffffffffffffffffffffffff168273ffffffffffffffffffffffffffffffffffffffff167fddf252ad1be2c89b69c2b068fc378daa952ba7f163c4a11628f55a4df523b3ef60405160405180910390a4809150509392505050565b6008805490506009600083815260200190815260200160002081905550600881908060018154018082558091505060019003906000526020600020016000909190919091505550565b60006135798361183b565b90506000600760008481526020019081526020016000205490506000600660008673ffffffffffffffffffffffffffffffffffffffff1673ffffffffffffffffffffffffffffffffffffffff16815260200190815260200160002090508282146136255760008160008581526020019081526020016000205490508082600085815260200190815260200160002081905550826007600083815260200190815260200160002081905550505b6007600085815260200190815260200160002060009055806000848152602001908152602001600020600090555050505050565b6000600160088054905061366d9190615134565b905060006009600084815260200190815260200160002054905060006008838154811061369d5761369c61541c565b5b9060005260206000200154905080600883815481106136bf576136be61541c565b5b90600052602060002001819055508160096000838152602001908152602001600020819055506009600085815260200190815260200160002060009055600880548061370e5761370d615683565b5b6001900381819060005260206000200160009055905550505050565b600060016137378461183b565b6137419190615134565b905081600660008573ffffffffffffffffffffffffffffffffffffffff1673ffffffffffffffffffffffffffffffffffffffff168152602001908152602001600020600083815260200190815260200160002081905550806007600084815260200190815260200160002081905550505050565b600080600090507a184f03e93ff9f4daa797ed6e38ed64bf6a1f0100000000000000008310613813577a184f03e93ff9f4daa797ed6e38ed64bf6a1f0100000000000000008381613809576138086155fa565b5b0492506040810190505b6d04ee2d6d415b85acef81000000008310613850576d04ee2d6d415b85acef81000000008381613846576138456155fa565b5b0492506020810190505b662386f26fc10000831061387f57662386f26fc100008381613875576138746155fa565b5b0492506010810190505b6305f5e10083106138a8576305f5e100838161389e5761389d6155fa565b5b0492506008810190505b61271083106138cd5761271083816138c3576138c26155fa565b5b0492506004810190505b606483106138f057606483816138e6576138e56155fa565b5b0492506002810190505b600a83106138ff576001810190505b80915050919050565b6139228282604051806020016040528060008152506139ea565b5050565b613931838383613a0e565b6139e557600073ffffffffffffffffffffffffffffffffffffffff168373ffffffffffffffffffffffffffffffffffffffff16036139a657806040517f7e27328900000000000000000000000000000000000000000000000000000000815260040161399d9190614217565b60405180910390fd5b81816040517f177e802f0000000000000000000000000000000000000000000000000000000081526004016139dc929190615070565b60405180910390fd5b505050565b6139f48383613acf565b613a096139ff612a12565b6000858585612cb8565b505050565b60008073ffffffffffffffffffffffffffffffffffffffff168373ffffffffffffffffffffffffffffffffffffffff1614158015613ac657508273ffffffffffffffffffffffffffffffffffffffff168473ffffffffffffffffffffffffffffffffffffffff161480613a875750613a86848461267d565b5b80613ac557508273ffffffffffffffffffffffffffffffffffffffff16613aad836129d5565b73ffffffffffffffffffffffffffffffffffffffff16145b5b90509392505050565b600073ffffffffffffffffffffffffffffffffffffffff168273ffffffffffffffffffffffffffffffffffffffff1603613b415760006040517f64a0ae92000000000000000000000000000000000000000000000000000000008152600401613b389190614181565b60405180910390fd5b6000613b4f83836000612a2c565b9050600073ffffffffffffffffffffffffffffffffffffffff168173ffffffffffffffffffffffffffffffffffffffff1614613bc35760006040517f73c6ac6e000000000000000000000000000000000000000000000000000000008152600401613bba9190614181565b60405180910390fd5b505050565b828054828255906000526020600020908101928215613c10579160200282015b82811115613c0f578251829081613bff9190614f67565b5091602001919060010190613be8565b5b509050613c1d9190613c21565b5090565b5b80821115613c415760008181613c389190613c45565b50600101613c22565b5090565b508054613c5190614d8a565b6000825580601f10613c635750613c82565b601f016020900490600052602060002090810190613c819190613c85565b5b50565b5b80821115613c9e576000816000905550600101613c86565b5090565b6000604051905090565b600080fd5b600080fd5b60007fffffffff0000000000000000000000000000000000000000000000000000000082169050919050565b613ceb81613cb6565b8114613cf657600080fd5b50565b600081359050613d0881613ce2565b92915050565b600060208284031215613d2457613d23613cac565b5b6000613d3284828501613cf9565b91505092915050565b60008115159050919050565b613d5081613d3b565b82525050565b6000602082019050613d6b6000830184613d47565b92915050565b6000819050919050565b613d8481613d71565b8114613d8f57600080fd5b50565b600081359050613da181613d7b565b92915050565b600080fd5b600080fd5b6000601f19601f8301169050919050565b7f4e487b7100000000000000000000000000000000000000000000000000000000600052604160045260246000fd5b613dfa82613db1565b810181811067ffffffffffffffff82111715613e1957613e18613dc2565b5b80604052505050565b6000613e2c613ca2565b9050613e388282613df1565b919050565b600067ffffffffffffffff821115613e5857613e57613dc2565b5b613e6182613db1565b9050602081019050919050565b82818337600083830152505050565b6000613e90613e8b84613e3d565b613e22565b905082815260208101848484011115613eac57613eab613dac565b5b613eb7848285613e6e565b509392505050565b600082601f830112613ed457613ed3613da7565b5b8135613ee4848260208601613e7d565b91505092915050565b600067ffffffffffffffff821115613f0857613f07613dc2565b5b602082029050602081019050919050565b600080fd5b6000613f31613f2c84613eed565b613e22565b90508083825260208201905060208402830185811115613f5457613f53613f19565b5b835b81811015613f9b57803567ffffffffffffffff811115613f7957613f78613da7565b5b808601613f868982613ebf565b85526020850194505050602081019050613f56565b5050509392505050565b600082601f830112613fba57613fb9613da7565b5b8135613fca848260208601613f1e565b91505092915050565b60008060008060808587031215613fed57613fec613cac565b5b6000613ffb87828801613d92565b945050602085013567ffffffffffffffff81111561401c5761401b613cb1565b5b61402887828801613ebf565b935050604085013567ffffffffffffffff81111561404957614048613cb1565b5b61405587828801613fa5565b925050606061406687828801613d92565b91505092959194509250565b600081519050919050565b600082825260208201905092915050565b60005b838110156140ac578082015181840152602081019050614091565b60008484015250505050565b60006140c382614072565b6140cd818561407d565b93506140dd81856020860161408e565b6140e681613db1565b840191505092915050565b6000602082019050818103600083015261410b81846140b8565b905092915050565b60006020828403121561412957614128613cac565b5b600061413784828501613d92565b91505092915050565b600073ffffffffffffffffffffffffffffffffffffffff82169050919050565b600061416b82614140565b9050919050565b61417b81614160565b82525050565b60006020820190506141966000830184614172565b92915050565b6141a581614160565b81146141b057600080fd5b50565b6000813590506141c28161419c565b92915050565b600080604083850312156141df576141de613cac565b5b60006141ed858286016141b3565b92505060206141fe85828601613d92565b9150509250929050565b61421181613d71565b82525050565b600060208201905061422c6000830184614208565b92915050565b600081519050919050565b600082825260208201905092915050565b6000819050602082019050919050565b600082825260208201905092915050565b600061427a82614072565b614284818561425e565b935061429481856020860161408e565b61429d81613db1565b840191505092915050565b60006142b4838361426f565b905092915050565b6000602082019050919050565b60006142d482614232565b6142de818561423d565b9350836020820285016142f08561424e565b8060005b8581101561432c578484038952815161430d85826142a8565b9450614318836142bc565b925060208a019950506001810190506142f4565b50829750879550505050505092915050565b6000608082019050818103600083015261435881876140b8565b9050818103602083015261436c81866140b8565b9050818103604083015261438081856142c9565b905061438f6060830184614208565b95945050505050565b6000602082840312156143ae576143ad613cac565b5b60006143bc848285016141b3565b91505092915050565b6000806000606084860312156143de576143dd613cac565b5b60006143ec868287016141b3565b93505060206143fd868287016141b3565b925050604061440e86828701613d92565b9150509250925092565b60006101008201905061442e600083018b614208565b61443b602083018a614208565b6144486040830189614208565b6144556060830188614208565b6144626080830187614208565b61446f60a0830186614208565b61447c60c0830185614208565b61448960e0830184613d47565b9998505050505050505050565b61449f81613d3b565b81146144aa57600080fd5b50565b6000813590506144bc81614496565b92915050565b600080604083850312156144d9576144d8613cac565b5b60006144e7858286016141b3565b92505060206144f8858286016144ad565b9150509250929050565b6000608082019050818103600083015261451c81876140b8565b9050818103602083015261453081866140b8565b905061453f6040830185614208565b61454c6060830184613d47565b95945050505050565b600067ffffffffffffffff8211156145705761456f613dc2565b5b61457982613db1565b9050602081019050919050565b600061459961459484614555565b613e22565b9050828152602081018484840111156145b5576145b4613dac565b5b6145c0848285613e6e565b509392505050565b600082601f8301126145dd576145dc613da7565b5b81356145ed848260208601614586565b91505092915050565b600080600080608085870312156146105761460f613cac565b5b600061461e878288016141b3565b945050602061462f878288016141b3565b935050604061464087828801613d92565b925050606085013567ffffffffffffffff81111561466157614660613cb1565b5b61466d878288016145c8565b91505092959194509250565b600060e08201905061468e600083018a614208565b61469b6020830189614208565b6146a86040830188614208565b6146b56060830187614208565b6146c26080830186614208565b6146cf60a0830185614208565b6146dc60c0830184613d47565b98975050505050505050565b600081519050919050565b600082825260208201905092915050565b6000819050602082019050919050565b61471d81614160565b82525050565b600061472f8383614714565b60208301905092915050565b6000602082019050919050565b6000614753826146e8565b61475d81856146f3565b935061476883614704565b8060005b838110156147995781516147808882614723565b975061478b8361473b565b92505060018101905061476c565b5085935050505092915050565b600060208201905081810360008301526147c08184614748565b905092915050565b600081519050919050565b600082825260208201905092915050565b6000819050602082019050919050565b6147fd81613d71565b82525050565b600061480f83836147f4565b60208301905092915050565b6000602082019050919050565b6000614833826147c8565b61483d81856147d3565b9350614848836147e4565b8060005b838110156148795781516148608882614803565b975061486b8361481b565b92505060018101905061484c565b5085935050505092915050565b600060208201905081810360008301526148a08184614828565b905092915050565b600081519050919050565b600082825260208201905092915050565b6000819050602082019050919050565b6148dd81613d3b565b82525050565b60006148ef83836148d4565b60208301905092915050565b6000602082019050919050565b6000614913826148a8565b61491d81856148b3565b9350614928836148c4565b8060005b8381101561495957815161494088826148e3565b975061494b836148fb565b92505060018101905061492c565b5085935050505092915050565b600060208201905081810360008301526149808184614908565b905092915050565b600081519050919050565b600082825260208201905092915050565b6000819050602082019050919050565b600082825260208201905092915050565b60006149d082614232565b6149da81856149b4565b9350836020820285016149ec8561424e565b8060005b85811015614a285784840389528151614a0985826142a8565b9450614a14836142bc565b925060208a019950506001810190506149f0565b50829750879550505050505092915050565b6000614a4683836149c5565b905092915050565b6000602082019050919050565b6000614a6682614988565b614a708185614993565b935083602082028501614a82856149a4565b8060005b85811015614abe5784840389528151614a9f8582614a3a565b9450614aaa83614a4e565b925060208a01995050600181019050614a86565b50829750879550505050505092915050565b60006060820190508181036000830152614aea81866142c9565b90508181036020830152614afe8185614a5b565b90508181036040830152614b128184614828565b9050949350505050565b60008060408385031215614b3357614b32613cac565b5b6000614b41858286016141b3565b9250506020614b52858286016141b3565b9150509250929050565b60008060008060808587031215614b7657614b75613cac565b5b600085013567ffffffffffffffff811115614b9457614b93613cb1565b5b614ba087828801613ebf565b945050602085013567ffffffffffffffff811115614bc157614bc0613cb1565b5b614bcd87828801613ebf565b935050604085013567ffffffffffffffff811115614bee57614bed613cb1565b5b614bfa87828801613fa5565b9250506060614c0b87828801613d92565b91505092959194509250565b7f4e6f7420617574686f72697a6564000000000000000000000000000000000000600082015250565b6000614c4d600e8361407d565b9150614c5882614c17565b602082019050919050565b60006020820190508181036000830152614c7c81614c40565b9050919050565b7f436f6e74656e74206e6f7420666f756e64000000000000000000000000000000600082015250565b6000614cb960118361407d565b9150614cc482614c83565b602082019050919050565b60006020820190508181036000830152614ce881614cac565b9050919050565b7f496e76616c696420616e7377657220696e646578000000000000000000000000600082015250565b6000614d2560148361407d565b9150614d3082614cef565b602082019050919050565b60006020820190508181036000830152614d5481614d18565b9050919050565b7f4e487b7100000000000000000000000000000000000000000000000000000000600052602260045260246000fd5b60006002820490506001821680614da257607f821691505b602082108103614db557614db4614d5b565b5b50919050565b60008190508160005260206000209050919050565b60006020601f8301049050919050565b600082821b905092915050565b600060088302614e1d7fffffffffffffffffffffffffffffffffffffffffffffffffffffffffffffffff82614de0565b614e278683614de0565b95508019841693508086168417925050509392505050565b6000819050919050565b6000614e64614e5f614e5a84613d71565b614e3f565b613d71565b9050919050565b6000819050919050565b614e7e83614e49565b614e92614e8a82614e6b565b848454614ded565b825550505050565b600090565b614ea7614e9a565b614eb2818484614e75565b505050565b5b81811015614ed657614ecb600082614e9f565b600181019050614eb8565b5050565b601f821115614f1b57614eec81614dbb565b614ef584614dd0565b81016020851015614f04578190505b614f18614f1085614dd0565b830182614eb7565b50505b505050565b600082821c905092915050565b6000614f3e60001984600802614f20565b1980831691505092915050565b6000614f578383614f2d565b9150826002028217905092915050565b614f7082614072565b67ffffffffffffffff811115614f8957614f88613dc2565b5b614f938254614d8a565b614f9e828285614eda565b600060209050601f831160018114614fd15760008415614fbf578287015190505b614fc98582614f4b565b865550615031565b601f198416614fdf86614dbb565b60005b8281101561500757848901518255600182019150602085019450602081019050614fe2565b868310156150245784890151615020601f891682614f2d565b8355505b6001600288020188555050505b505050505050565b600060608201905061504e6000830186614172565b61505b6020830185614208565b6150686040830184614172565b949350505050565b60006040820190506150856000830185614172565b6150926020830184614208565b9392505050565b7f55736572206e6f74207265676973746572656400000000000000000000000000600082015250565b60006150cf60138361407d565b91506150da82615099565b602082019050919050565b600060208201905081810360008301526150fe816150c2565b9050919050565b7f4e487b7100000000000000000000000000000000000000000000000000000000600052601160045260246000fd5b600061513f82613d71565b915061514a83613d71565b925082820390508181111561516257615161615105565b5b92915050565b7f4e6f20706f696e747320746f2072656465656d00000000000000000000000000600082015250565b600061519e60138361407d565b91506151a982615168565b602082019050919050565b600060208201905081810360008301526151cd81615191565b9050919050565b60006151df82613d71565b91506151ea83613d71565b92508282026151f881613d71565b9150828204841483151761520f5761520e615105565b5b5092915050565b7f496e73756666696369656e7420636f6e74726163742062616c616e6365000000600082015250565b600061524c601d8361407d565b915061525782615216565b602082019050919050565b6000602082019050818103600083015261527b8161523f565b9050919050565b600061528d82613d71565b915061529883613d71565b92508282019050808211156152b0576152af615105565b5b92915050565b600081905092915050565b50565b60006152d16000836152b6565b91506152dc826152c1565b600082019050919050565b60006152f2826152c4565b9150819050919050565b7f4661696c656420746f2073656e64205846490000000000000000000000000000600082015250565b600061533260128361407d565b915061533d826152fc565b602082019050919050565b6000602082019050818103600083015261536181615325565b9050919050565b7f416c726561647920726567697374657265640000000000000000000000000000600082015250565b600061539e60128361407d565b91506153a982615368565b602082019050919050565b600060208201905081810360008301526153cd81615391565b9050919050565b60006153df82613d71565b91507fffffffffffffffffffffffffffffffffffffffffffffffffffffffffffffffff820361541157615410615105565b5b600182019050919050565b7f4e487b7100000000000000000000000000000000000000000000000000000000600052603260045260246000fd5b600081905092915050565b600061546182614072565b61546b818561544b565b935061547b81856020860161408e565b80840191505092915050565b60006154938285615456565b915061549f8284615456565b91508190509392505050565b7f416c726561647920636f6d706c65746564000000000000000000000000000000600082015250565b60006154e160118361407d565b91506154ec826154ab565b602082019050919050565b60006020820190508181036000830152615510816154d4565b9050919050565b600081519050919050565b600082825260208201905092915050565b600061553e82615517565b6155488185615522565b935061555881856020860161408e565b61556181613db1565b840191505092915050565b60006080820190506155816000830187614172565b61558e6020830186614172565b61559b6040830185614208565b81810360608301526155ad8184615533565b905095945050505050565b6000815190506155c781613ce2565b92915050565b6000602082840312156155e3576155e2613cac565b5b60006155f1848285016155b8565b91505092915050565b7f4e487b7100000000000000000000000000000000000000000000000000000000600052601260045260246000fd5b600061563482613d71565b915061563f83613d71565b92508261564f5761564e6155fa565b5b828204905092915050565b600060408201905061566f6000830185614208565b61567c6020830184613d47565b9392505050565b7f4e487b7100000000000000000000000000000000000000000000000000000000600052603160045260246000fdfea2646970667358221220c614665a7eb0c88a012ccdf96c45f7bac3fba96f14cebbbdf8190b6d5946a7e964736f6c634300081b0033",
  "linkReferences": {},
  "deployedLinkReferences": {}
}